:020000040800F2
:10000000A838002045010008F90300088F03000804
:10001000F50300086B020008790C000800000000DE
:10002000000000000000000000000000950900082A
:100030006F02000800000000FB030008810A0008AE
:100040005F0100085F0100085F0100085F01000810
:100050005F0100085F0100085F0100085F01000800
:100060005F0100085F0100085F0100085F010008F0
:100070005F0100085F0100085F0100085F010008E0
:100080005F0100085F0100085F0100085F010008D0
:100090005F0100085F0100085F0100085F010008C0
:1000A0005F0100085F0100085F0100085F010008B0
:1000B0005F0100085F0100085F0100085F010008A0
:1000C0005F0100085F0100085F0100085F01000890
:1000D0005F0100085F0100085F0100085F01000880
:1000E0005F0100085F0100085F0100085F01000870
:1000F0005F0100085F0100085F0100085F01000860
:100100005F0100085F0100085F0100085F0100084F
:100110005F0100085F0100085F0100085F0100083F
:100120005F0100085F0100085F0100085F0100082F
:10013000DFF80CD000F06AF8004800471D2C0008DA
:10014000A83800200648804706480047FEE7FEE73B
:10015000FEE7FEE7FEE7FEE7FEE7FEE7FEE7FEE777
:10016000850A00083101000840EA01039B0703D01B
:1001700009E008C9121F08C0042AFAD203E011F8E6
:10018000013B00F8013B521EF9D27047D2B201E0A8
:1001900000F8012B491EFBD270470022F6E710B58C
:1001A00013460A4604461946FFF7F0FF204610BDE5
:1001B000CAB2401E10F8011F8A4202D00029F9D1AC
:1001C0000020704730B504460020034600E05B1C69
:1001D000934203D2E05CCD5C401BF8D030BD30B51B
:1001E0000B46014600202022012409E021FA02F5F5
:1001F0009D4205D303FA02F5491B04FA02F528448F
:10020000151EA2F10102F1DC30BD0000064C074DC5
:1002100006E0E06840F0010394E8070098471034D6
:10022000AC42F6D3FFF788FFD0E10208F0E1020804
:1002300030B58C1810F8012B12F00F0301D110F813
:10024000013B120906D110F8012B03E010F8015B05
:1002500001F8015B5B1EF9D101E001F8013B521E80
:10026000FBD1A142E6D3002030BD00BFFEE77047BE
:100270002DE9F0410246002500260020002300243D
:10028000002791F803C00CF00F0591F803C00CF0A3
:10029000100CBCF1000F03D091F802C04CEA050528
:1002A00091F800C0BCF1000F31D0146800202BE0A1
:1002B0004FF0010C0CFA00F3B1F800C00CEA030691
:1002C0009E4220D183004FF00F0C0CFA03F7BC4381
:1002D00005FA03FC4CEA040491F803C0BCF1280FB2
:1002E00006D14FF0010C0CFA00FCC2F814C00AE071
:1002F00091F803C0BCF1480F05D14FF0010C0CFA86
:1003000000FCC2F810C0401C0828D1D31460B1F81A
:1003100000C0BCF1FF0F34DD546800202EE000F176
:10032000080C4FF0010808FA0CF3B1F800C00CEA11
:1003300003069E4221D183004FF00F0C0CFA03F705
:10034000BC4305FA03FC4CEA040491F803C0BCF179
:10035000280F05D100F1080C08FA0CF8C2F8148037
:1003600091F803C0BCF1480F07D100F1080C4FF021
:10037000010808FA0CF8C2F81080401C0828CED3F7
:100380005460BDE8F081416170470161704700BF72
:10039000FEE7000008B50121082000F02FF820201A
:1003A000ADF8000010208DF8030003208DF8020046
:1003B00069460F48FFF75CFF0120ADF80000694671
:1003C0000B48FFF755FF0220ADF8000069460848CA
:1003D000FFF74EFF20210648FFF7D7FF0121044811
:1003E000FFF7D3FF02210248FFF7CFFF08BD00004F
:1003F000000C014000BFFEE77047704729B1064A74
:1004000092690243044B9A6104E0034A9269824371
:10041000014B9A61704700000010024030B5002186
:100420000022002400232D4D6D6805F00C0121B140
:10043000042905D0082923D105E0294D056022E0D3
:10044000274D05601FE0254D6D6805F47012234DA2
:100450006D6805F48034022505EB92421CB9214DEC
:10046000554305600BE01D4D6D6805F400351DB169
:100470001C4D5543056002E0194D5543056002E0EF
:10048000174D056000BF00BF144D6D6805F0F00109
:100490000909154D6B5C0568DD4045600F4D6D68C1
:1004A00005F4E061090A104D6B5C4568DD4085602C
:1004B0000A4D6D6805F46051C90A0B4D6B5C4568C7
:1004C000DD40C560054D6D6805F44041890B074D61
:1004D0006B5CC568B5FBF3F5056130BD00100240EB
:1004E00000127A0000093D000000002010000020EA
:1004F00021B1028842F04002028004E002884FF6F7
:10050000BF731A400280704710B510210548FFF7ED
:100510003AFF062000F0A4F910210248FFF735FF4A
:1005200010BD00000008014070B505460C46164697
:1005300010211148FFF727FF032000F091F9002157
:100540000904C8B200F08CF900210902C8B200F019
:1005500087F9E0B200F084F903E000F059F928705F
:100560006D1C3000A6F101018EB2F6D110210248B7
:10057000FFF70BFF70BD0000000801402DE9F05FA0
:1005800007460E4614464FF00008C146C2460025F5
:10059000AB4606F0FF0ACAF10000C5B22046E117DB
:1005A00004EB1161C1F30728E11704EB1161091293
:1005B000A4EB012101F0FF09BAF1000F20D1B8F13D
:1005C000000F05D122463146384600F0D1F864E0EC
:1005D00009E04FF480723146384600F0C9F807F55B
:1005E000807706F580765FEA0800A8F1010101F046
:1005F000FF08EED14A463146384600F0B9F84CE0E3
:10060000B8F1000F18D1A94510DDA9EB050000F0E5
:10061000FF0B2A463146384600F0AAF82F442E44F4
:100620005A463146384600F0A3F836E022463146B5
:10063000384600F09DF830E0601B84B22046E11798
:1006400004EB1161C1F30728E11704EB11610912F2
:10065000A4EB012101F0FF092A463146384600F09B
:1006600087F82F442E4409E04FF480723146384613
:1006700000F07EF807F5807706F580765FEA0800DF
:10068000A8F1010101F0FF08EED1B9F1000F04D08B
:100690004A463146384600F06BF8BDE8F09F00004E
:1006A00000B587B001210803FFF7A8FE012104204F
:1006B000FFF7A4FE1020ADF8040003208DF806001B
:1006C00010208DF8070001A92748FFF7D1FD102160
:1006D0002548FFF75AFE2020ADF8040003208DF8CE
:1006E000060018208DF8070001A91F48FFF7C0FD7C
:1006F0004020ADF8040003208DF8060004208DF89A
:10070000070001A91848FFF7B3FD8020ADF80400E9
:1007100003208DF8060018208DF8070001A9124863
:10072000FFF7A6FD0020ADF814000220ADF8100080
:100730000120ADF80E000020ADF80C00ADF8080067
:10074000ADF816004FF48270ADF80A004FF4007057
:10075000ADF8120002A9054800F0E2F801210348B3
:10076000FFF7C6FE07B000BD0008014000300140A1
:1007700070B505460C461646FFF7C6FE1021114817
:10078000FFF701FE022000F06BF8C4F3074000F011
:1007900067F8C4F3072000F063F8E0B200F060F8F7
:1007A00003E015F8010B00F05BF83000A6F1010141
:1007B0008EB2F6D110210348FFF7E7FD00F08AF86A
:1007C00070BD0000000801402DE9F0410024002523
:1007D0000026002710210D48FFF7D5FD9F2000F0CF
:1007E0003FF800F015F8054600F012F8064600F054
:1007F0000FF8074610210548FFF7C7FD280440EA17
:10080000062040EA07042046BDE8F08100080140C8
:1008100010B5FF2000F024F810BD000010B504460C
:10082000FFF772FEFFF770FE10210C48FFF7ABFDDB
:10083000202000F015F8C4F3074000F011F8C4F3CD
:10084000072000F00DF8E0B200F00AF8102103488C
:10085000FFF79BFD00F03EF810BD000000080140CE
:1008600010B504464FF480501849086009E0174855
:1008700001680068401E154A106011B9002000F0A0
:100880006DF80221124800F03DF80028EFD0214613
:100890000F4800F043F84FF480500C49086009E01D
:1008A0000A4801680068401E084A106011B901201A
:1008B00000F054F80121064800F024F80028EFD099
:1008C000034800F028F8C0B210BD0000300400203A
:1008D0000030014010B5002410210948FFF753FDF6
:1008E0000520FFF7BDFF00BFFFF792FF044604F0AD
:1008F00001000028F8D110210148FFF746FD10BD86
:10090000000801400246002013890B400BB1012072
:1009100000E0002070470146888970478181704758
:1009200010B50022028802F441520B884C88234300
:100930008C882343CC8823430C8923434C8923434D
:100940008C892343CC8923431A430280838B4FF243
:10095000FF74234083830B8A038210BD10B50446C5
:10096000214602A000F08AF9002010BD666C617378
:1009700068204552524F522D2D5350492064656CCA
:1009800061792C6572726F72436F64653D25640AEC
:1009900000000000704710B500F002F810BD000024
:1009A0000CB50020019000903348006840F480307E
:1009B0003149086000BF3048006800F40030009002
:1009C0000198401C0190009818B90198B0F5A06FEB
:1009D000F1D12948006800F4003010B101200090E6
:1009E00001E0002000900098012843D123480068CE
:1009F00040F01000214908600846006820F003001C
:100A000008600846006840F0020008601A48406824
:100A1000194948600846406848600846406840F404
:100A2000806048600846406820F47C1048600846B2
:100A3000406840F4E81048600846006840F0807064
:100A4000086000BF0C48006800F000700028F9D072
:100A50000948406820F0030007494860084640689C
:100A600040F00200486000BF0348406800F00C00FE
:100A70000828F9D10CBD00000010024000200240FF
:100A80007047000010B51348006840F0010011499C
:100A9000086008464068104908400E49486008460A
:100AA00000680E4908400B4908600846006820F4B9
:100AB000802008600846406820F4FE0048604FF43B
:100AC0001F008860FFF767FF4FF00060044908606F
:100AD00010BD0000001002400000FFF8FFFFF6FE0E
:100AE00008ED00E021B1828942F40052828104E0E5
:100AF00082894DF6FF731A408281704700B585B038
:100B000001210420FFF77AFC01218803FFF776FC1E
:100B10004FF40070ADF8100018208DF8130003207A
:100B20008DF8120004A91348FFF7A2FB4FF4806070
:100B3000ADF8100004208DF8130004A90D48FFF74C
:100B400097FB4FF4E13000900020ADF80400ADF8C1
:100B50000600ADF80800ADF80C000C20ADF80A0056
:100B60006946054800F018F801210348FFF7BAFF6D
:100B700005B000BD000801400038014002460020D9
:100B8000B1F5007F00D100BF13880B400BB10120ED
:100B900000E00020704700002DE9F04786B00546D0
:100BA0000E460024A24600BFA1460027B08900B12E
:100BB00000BF2F462C8A4CF6FF700440F088044397
:100BC0002C82AC894EF6F3100440B088318908437A
:100BD000718908430443AC81AC8A4FF6FF4004405E
:100BE000B0890443AC8201A8FFF718FC1F48874274
:100BF00002D1DDF810A001E0DDF80CA0A88900F416
:100C0000004040B10AEBCA0000EB0A10316849000D
:100C1000B0FBF1F807E00AEBCA0000EB0A103168FC
:100C20008900B0FBF1F86420B8FBF0F00401200962
:100C3000642101FB1089A88900F4004040B13220F2
:100C400000EBC900B0FBF1F000F00700044308E03E
:100C5000322000EB09106421B0FBF1F000F00F002E
:100C600004432C8106B0BDE8F08700000038014045
:100C7000C1F308028280704700BFFEE70FB4054B46
:100C800010B503A9044A029800F018F810BC5DF8EA
:100C900014FB0000512900084004002002E008C8AD
:100CA000121F08C1002AFAD170477047002001E0E6
:100CB00001C1121F002AFBD1704700002DE9FF4F30
:100CC00089B09B460446002506E025280BD05A46ED
:100CD0000B999047641C6D1C20780028F5D10DB04D
:100CE0002846BDE8F08F0027B8460122474900E0BA
:100CF000074314F8013F203B02FA03F00842F7D102
:100D000020782E2819D114F8010F47F004072A285B
:100D10000ED06FF02F022078A0F1300109290CD8F5
:100D200008EB880102EB410100EB0108641CF2E7CB
:100D30000A98641C50F8048B0A9020780028CED0C2
:100D4000642808D0692806D075281ED05A460B9909
:100D500090476D1C58E00A994FF00A0901C90A91A1
:100D6000002802DA40422D2102E0390504D52B216A
:100D70008DF82010012103E0F90704D02021F7E7C6
:100D80008A4608AE0DE00021FAE70A994FF00A09F9
:100D900001C90A91F7E74946FFF721FA303106F811
:100DA000011D0028F7D1ADEB060000F120097807FE
:100DB00001D44FF00108C84502DDA8EB090000E0AE
:100DC00000208046002706E008A85A46C05D0B991F
:100DD00090476D1C7F1C5745F6DB04E030205A46D7
:100DE0000B9990476D1CB8F10001A8F10108F5DCE2
:100DF00005E016F8010B5A460B9990476D1CB9F1A6
:100E00000001A9F10109F4DC641C65E7092801006F
:100E10002DE9F041044688460020E070401E6063E2
:100E20004146204602F082F910B10420BDE8F0816D
:100E300004F2362001F0ECFE074694F83850EB2D12
:100E400003D0E92D01D0E82D43D14AF65520874241
:100E500008D1082223A104F18A00FFF7B3F908B9E9
:100E60000020E3E704F1430001F0D2FE06464520EE
:100E7000055D701E304060BBB6F5007F29DBB6F51E
:100E8000805F26DC2DB3681E284010BB04F14600AD
:100E900001F0BEFEE8B14820005D401E012818D8D0
:100EA00004F1490001F0B4FE98B104F14B0001F0E7
:100EB000AFFE802806DA04F1580001F09DFEB0F57F
:100EC000803F06D304F14E0001F0A2FE08B10020DD
:100ED000ACE74AF65520874201D10220A6E703205D
:100EE000A4E70000464154333220202000000000D7
:100EF0000246891ED069801E884201D800207047B2
:100F00005389106B03FB0100F9E700002DE9F0475E
:100F100080460C4604F11A0001F07AFE10B1002060
:100F2000BDE8F087207800F03F00401E00EB800114
:100F300001EBC0054FF00109002621E01849895D49
:100F4000081901F065FE0746B9F1000F11D0FF2D19
:100F50000BD8384601F014FC824629466D1C38F83F
:100F6000110001F00DFC824501D00020D8E7B94600
:100F700005E04FF6FF70874201D00020D0E7761CD5
:100F80000D2EDBD3207800F0400038B1B9F1000F0E
:100F900004D038F8150008B10020C1E70120BFE7F0
:100FA000D43500082DE9F04782468846DAF800403B
:100FB000B8F1000F06D1676917B1E069B84215D8DA
:100FC000012713E04146504601F03EFD0546022D43
:100FD00002D20120BDE8F087681C08B92846F9E76D
:100FE000E069A84201D92846F4E74746A06908B954
:100FF0000020EFE70026474518D17E1CE069B0428B
:1010000000D802263146504601F01EFD0546012D4E
:1010100001D0681C08B92846DCE73DB16569022D9E
:1010200003D3E069A84200D92F460026E6B93E4620
:1010300000BF761CE069B04204D80226BE4201D946
:101040000020C7E73146504601F0FEFC054605B9D1
:1010500009E0012D01D0681C08B92846BAE7BE4254
:10106000E7D10020B6E700BF4FF0FF3231462046FF
:1010700002F076F88146B9F1000F08D1B8F1000FFF
:1010800005D032464146204602F06AF88146B9F161
:10109000000F0DD16661D4E90610801E814202D88E
:1010A000A069401EA061207940F00100207107E096
:1010B000B9F1010F02D14FF0FF3000E001200646E8
:1010C000304687E72DE9F34F85B0814606980068E2
:1010D0000290D9F80000D0F810A0002500BF02A8A7
:1010E00002F033FA83460BF1010018B9062007B06D
:1010F000BDE8F08FBBF5803F05D34FEA1B42284681
:101100006D1C2AF810201FFA8BF4202C03DB2F2CE7
:1011100001D05C2C00D111E0802C06DA21467BA0A6
:10112000FFF746F808B10620E1E7FF2D01D30620BE
:10113000DDE728466D1C2AF81040D0E700BF202CC0
:1011400001DA042611E002E00298401C02900298A5
:1011500000782F28F8D0029800785C28F4D0002678
:1011600002980078202800D204260299069801608F
:1011700008E0681E3AF81040202C02D02E2C00D037
:1011800002E06D1E002DF4D100BF00202AF81500EA
:101190000DB90620ABE7002700E07F1C3AF81700E6
:1011A0002028FAD01FB93AF817002E2801D146F0AE
:1011B000030600E06D1E25B1681E3AF810002E28C7
:1011C000F8D120220B2109F12000FEF7DFFF4FF0BC
:1011D0000008CDF810800820039000BF38467F1C1F
:1011E0003AF8104004B966E0202C03D02E2C04D12C
:1011F000AF4202D046F00306F0E7DDE90310884273
:1012000001D2AF4216D103980B2802D146F0030653
:1012100051E0AF4201D046F00306AF4200D94AE0A8
:101220002F46082004900B2003904FEA88604FEA75
:101230001068D3E7802C0ADB46F00206204601F056
:101240009FFA4FF46A71019001F060FA0446FF2C96
:1012500011DD0398401E0499884204D846F0030625
:1012600003980490BAE722120498411C049109F1F2
:1012700020010A5418E024B1214627A0FEF798FF68
:1012800018B15F2446F003060EE0412C03DB5A2C14
:1012900001DC48F00208612C06DB7A2C04DC48F003
:1012A0000108A4F1200084B20498411C049109F1C2
:1012B00020010C5492E700BF99F82000E52802D1E4
:1012C000052089F820000398082803D14FEA886098
:1012D0004FEA106808F00C000C2803D008F0030057
:1012E000032801D146F0020606F0020048B908F0D2
:1012F000010008B146F0100608F0040008B146F0FD
:1013000008062B2000F809600020F0E62A3A3C3E4F
:101310007C223F7F000000002B2C3B3D5B5D0000EA
:101320002DE9FF4F85B09A4603AA0121059800F0E8
:1013300036FB18B1012009B0BDE8F08FDDF80C9044
:101340004FF03F08082701E07806070E37B1B9FBD8
:10135000F7F0B0FBF8F0B0F5806FF5D807B9FF27CC
:101360004FF480515046FEF718FF0AF5DF764FF034
:10137000000B444669E0069850F82B50642D07D8BE
:1013800001D1484603E06420B9FBF0F0684305460C
:101390006019484501D8601901D3A9EB040505B9C6
:1013A00059E0214606F1080002F041F8294606F10D
:1013B0000C0002F03CF807983071B4FBF8F0B0FB79
:1013C000F7F00490B4FBF8F0B0FBF7F107FB110065
:1013D000C0B20290B4FBF8F008FB1040401CC0B251
:1013E000019002987070C021049801EA9000019960
:1013F0000843B0700498F0706019401EB0FBF8F01C
:10140000B0FBF7F004906019401EB0FBF8F0B0FBA1
:10141000F7F107FB1100C0B202906019401EB0FB4B
:10142000F8F108FB1100401CC0B2019002987071E5
:10143000C021049801EA900001990843B071049812
:10144000F07110360BF1010B2C44BBF1040F02D2EA
:101450000CB14C458FD300BF4AF655210AF5FF70F9
:1014600001F0F1FF012300225146059800F0E8FA4F
:1014700008B101205FE700205DE7000001460B484E
:10148000007888420FDC09484078884201DB01205F
:10149000704706488078884205DC0448C078884256
:1014A00001DB0120F4E70020F2E70000E13500084D
:1014B000014610480079884219DC0E48407988427C
:1014C00001DB012070470B488079884205DC094820
:1014D000C079884201DB0120F4E70648007A88429F
:1014E00005DC0448407A884201DB0120EAE700205D
:1014F000E8E70000E13500082DE9F04104460E461A
:10150000D4F800800021204600F0E3F90546EDB94B
:10151000002700BF4046A16901F008FE054605B15D
:1015200013E0E0690078E52802D0E069007820B98E
:10153000781C0746B04201D107E000270121204670
:1015400000F0B7F80546002DE4D000BF042D00D10F
:1015500007252846BDE8F0812DE9F0470446894675
:10156000204601F0CDFF10B10120BDE8F0874946CB
:101570002046FFF7BDFC064666634FF4805104F138
:101580003800FEF70AFE04F138080127002500E0C4
:101590003D446089A84207D9721960783B464146AC
:1015A00000F04EFA0028F3D06089A84201D0012053
:1015B000DBE70020D9E72DE9F0470446D4F800A086
:1015C0000021204600F085F9064616B13046BDE8F8
:1015D000F0874FF0FF08C1464FF0FF30E06200BFD8
:1015E0005046A16901F0A2FD064606B15EE0E06941
:1015F00005780DB9042659E0E069C07A00F03F078C
:10160000A771E52D04D007F0080038B10F2F05D0E1
:101610004FF0FF084FF0FF30E06240E00F2F22D183
:101620002B20005D00F0400098BB05F0400038B171
:10163000E06990F80D9005F0BF05A8462069E062CA
:1016400045450CD1E069407B484508D1E169DAF8AD
:101650001000FFF75BFC10B1A8F1010000E0FF20D3
:1016600000F0FF081BE0B8F1000F05D1E06901F0C0
:10167000F0FE484500D119E02B20005D00F001008C
:1016800040B90B2204F12001E069FEF79BFD08B987
:101690000CE004E04FF0FF084FF0FF30E062002163
:1016A000204600F006F80646002E99D000BF3046CE
:1016B0008DE72DE9F041044688462668206900F14F
:1016C0002007B7F5001F01D30020A061A06910B961
:1016D0000420BDE8F081B089B7FBF0F100FB117088
:1016E000002847D1A069401CA061606938B93089E1
:1016F000B0EB571F3ED80020A0610420E9E7B08975
:10170000B7FBF0F07189491E084098BB204661691B
:1017100001F09AF90546012D01D80220D9E7681C8D
:1017200008B90120D5E7F069A8421DD8B8F1000F2B
:1017300003D10020A0610420CBE720466169FFF7B8
:1017400031FC05460DB90720C3E7012D01D1022068
:10175000BFE7681C08B90120BBE729463046FFF700
:10176000FBFE08B10120B4E7656129463046FFF76A
:10177000BFFBA0612761B089B7FBF0F100FB1171DD
:1017800006F138000844E0610020A2E72DE9FE4F91
:10179000044626682B20005D00F0A00010B1062052
:1017A000BDE8FE8F4FF0000901E009F10109306941
:1017B00030F819000028F8D1D4E90912206A8DE820
:1017C00007009DF80B0000F0010028B340212B20FA
:1017D00001554FF001080EE04346694604F1200030
:1017E000326901F0C7F82046FFF7E5FE054605B16E
:1017F00004E008F10108B8F1640FEDD300BFB8F1BF
:10180000640F01D10720CBE7042D01D02846C7E79C
:101810009DF80B102B2001559DF80B0000F00200E5
:1018200030B109F10C000D21B0FBF1F0401C00E0DB
:101830000120074639462046FFF75EFE05464DBBB0
:10184000781E070026D02069A0EB4711204600F043
:1018500040F80546F5B904F1200001F0FAFD824692
:1018600000BF3046A16901F061FC054605B110E0FA
:10187000FAB2E1695346306901F03AFD0120F07097
:1018800000212046FFF715FF054615B9781E070011
:10189000E7D100BFDDB93046A16901F047FC05463C
:1018A000ADB92021E069FEF778FCE069216A0160AA
:1018B000616A4160218D018194F82A1081722B2088
:1018C000005D00F01800E16908730120F0702846FF
:1018D00066E72DE9F04104460E462568B6F5001F7F
:1018E00002D206F01F0010B10220BDE8F08126618F
:1018F000A7681FB92878032800DBEF6A47B9288951
:10190000B0EB561F01D80220EFE7E86AA0611DE0A6
:101910006889A98900FB01F811E03946204601F0E9
:1019200093F80746781C08B90120DEE7022F02D39E
:10193000E869B84201D80220D7E7A6EB0806464579
:10194000EBD239462846FFF7D3FAA0616761A06958
:1019500008B90220C9E7A889B6FBF0F0A1690844DC
:10196000A061A889B6FBF0F100FB116105F1380018
:101970000844E0610020B8E710B5044614B1012C1A
:1019800004D100E002E0FEF78BFE00BF00BF0120A3
:1019900000F040F808B9002010BD0120FCE710B5A8
:1019A0000346042013B1012B16D100E016E00129F3
:1019B00004D0022906D003290BD107E04FF4C064FC
:1019C000146006E04FF48054148002E00124146097
:1019D00000BF00BF002001E0042000BF00BF10BD19
:1019E0002DE9F04105460E4614461F4604F50074E5
:1019F00015B1012D0AD100E008E04FF6FF7000EAB2
:101A0000073221033046FEF78FFD00BF00BF0020E4
:101A1000BDE8F08170B5054615B1012D05D100E096
:101A200003E0FEF7D1FE044600BF00BF0348844236
:101A300001D1002070BD0120FCE700001740EF003D
:101A40002DE9F04106460F461446984616B1012E80
:101A500010D100E00EE004F5007425032846FEF7DF
:101A6000DDFE4FF6FF7000EA083229463846FEF7E1
:101A700085FD00BF00BF0020BDE8F08138B50546F8
:101A8000284600F0B4FC04463CB96946284601F0FB
:101A900082FD04460CB900202860204638BD0000B5
:101AA0002DE9FF4F99B00E4619A801F06BF803908D
:101AB0000398002803DA0B201DB0BDE8F08FF7492A
:101AC000039851F8200028B10021F44A039852F8F5
:101AD000200001700398C0B216900020159006B93E
:101AE000EF4E1698FFF748FF0290029800F00100B1
:101AF00008B10320E0E7029800F0040008B10A20D2
:101B0000DAE770681290129838B912AA0321169871
:101B1000FFF745FF08B101201290129840B11298CA
:101B2000B0F5004F04D81298401E1299084008B131
:101B30000120129014AA02211698FFF730FF08B175
:101B40000120B9E7BDF85000B0F5805F0BDCBDF8AF
:101B50005000B0F5007F06DBBDF85000401EBDF818
:101B60005010084008B10120A6E7307800F00F00BF
:101B700018907078012804DB7078022801DC7078F6
:101B800000E001200590B16889B1B168B1F5004F5E
:101B90000DD8BDF85000C11700EBD1614911B268F2
:101BA000B2FBF1F301FB132109B9B16801E04FF475
:101BB00000710491F068B0F1807F05D8F068411E93
:101BC000084008B9F06800E000200690BDF8501009
:101BD0000698B0FBF1F00690BDF850101C98B0FBD1
:101BE000F1F01390139808B9112065E71B9C0CB90C
:101BF000112061E74FF0000ACDF83CA000BF0FAA0A
:101C000001211698FFF7CBFE08B1012054E7189880
:101C100000F0080040B90F983F2805D94FF03F0A5F
:101C20000F98A0EB0A000F900F98802801D20E2089
:101C300042E700BF00BF0698802801D980200690A7
:101C4000189800F0020028B1189800F0010008B9B7
:101C5000032707E0189800F0010008B913202BE7CC
:101C6000022700BF00BF00F089FF0F9908441090C1
:101C700000BF069D032F2DD195B90F984FEA50490B
:101C80004FF0000B012502E00BF1010B6D008548C0
:101C900030F81B0020B1834830F81B004845F3D9C9
:101CA0000F98B0FBF5F8082000EB8800BDF8501045
:101CB0000844401EB0FBF1F008902020099000205D
:101CC00007904FF6F570804502D97748804539D99D
:101CD0000E20F1E695B90F984FEA10394FF0000B3E
:101CE000012502E00BF1010B6D00704830F81B007C
:101CF00020B16E4830F81B004845F3D90F98B0FB6F
:101D0000F5F840F6F570804503D9042000EB48094A
:101D100006E0012708EB4800401C032101EB5009B5
:101D2000BDF850004844401EBDF85010B0FBF1F023
:101D300008900120099004984001BDF85010B0FBB4
:101D4000F1F00790099850440E90059A08990E9862
:101D500001FB0201079808440D9012990D98084460
:101D6000401E491E20EA01010D98A1EB0009032F36
:101D700006D10998484409900E9848440E9013E003
:101D80000598B9FBF0F100FB119038B1A9F10109F8
:101D90000998401C09900E98401C0E900598B9FBBC
:101DA000F0F10898084408900D9800EB0510A0EB9E
:101DB0000A000F99884201D90E207DE60F990998F3
:101DC0000A1A0599089800FB11210798081AB0FB18
:101DD000F5F8032F0BD14FF6F570804507D806981C
:101DE00018B96808069000B135E00E2064E6022FAD
:101DF00028D14FF6F570804517D9069830B94020A4
:101E0000B0EB450F02D36800069024E0189800F06C
:101E1000020008B103271EE0069820B9680006906A
:101E2000802800D817E00E2046E640F6F570804581
:101E300008D8069820B968000690802800D80AE0E3
:101E40000E2039E6012F05D140F6F570804501D905
:101E50000E2031E600E00CE700BFBDF85010204630
:101E6000FEF79BF912A00168216041686160018959
:101E70002181807AA072BDF8501004F10B0001F0AE
:101E8000E2FA6573099881B204F10E0001F0DBFA01
:101E900005982074032F11D1002010E03404002095
:101EA00008360008FA350008F5FFFF0FEC3500088A
:101EB000EBFE904D53444F53352E3000049881B2C1
:101EC00004F1110001F0BFFA0F98B0F5803F06D27F
:101ED0000F9881B204F1130001F0B5FA04E004F1A7
:101EE00020000F9901F0A3FAF82060753F2104F15A
:101EF000180001F0A8FAFF2104F11A0001F0A3FA7A
:101F0000514604F11C0001F092FA032F25D104F18F
:101F10004300109901F08BFA04F12400089901F0B4
:101F200086FA022104F12C0001F081FA012104F16A
:101F3000300001F088FA062104F1320001F083FA42
:101F4000802084F84000292084F84200132283A1D5
:101F500004F14700FEF708F916E004F12700109994
:101F600001F065FA089881B204F1160001F06BFAED
:101F7000802084F82400292084F8260013227CA1E4
:101F800004F12B00FEF7F0F84AF6552104F5FF7036
:101F900001F059FA0123524621461698FFF750FDE9
:101FA00008B1012088E5032F33D101230AF106028D
:101FB00021461698FFF744FDBDF850102046FEF765
:101FC000ECF87049204601F032FA6F4904F5F270DE
:101FD00001F02DFAA8F1010104F5F47001F027FADF
:101FE000022104F5F67001F022FA4AF6552104F5B3
:101FF000FF7001F028FA01230AF107022146169822
:10200000FFF71EFD01230AF1010221461698FFF792
:1020100017FDBDF85020139800FB02F12046FEF793
:10202000BCF80E980C904FF0000B40E0032F0FD13E
:102030006FF00701204601F0FAF9391F201D01F069
:10204000F6F96FF0704104F1080001F0F0F909E0D1
:10205000012F01D14D4801E06FF0070001462046F5
:1020600001F0E5F90898119000BF13991198884282
:1020700001D9139800E0119881464B4621460C9AED
:102080001698FFF7DDFC08B1012015E5BDF85010EA
:102090002046FEF782F80C9848440C901198A0EB6B
:1020A0000900119011980028DFD10BF1010B059860
:1020B0008345BBD3032F01D1284600E00798119038
:1020C00000BF13991198884201D9139800E0119824
:1020D00081464B4621460C9A1698FFF7B1FC08B191
:1020E0000120E9E40C9848440C901198A0EB0900F9
:1020F000119011980028E4D100BF032F02D10C20C9
:1021000017900CE00F98B0F5803F02D3062017908F
:1021100005E0022F01D1042000E00120179000BF4C
:10212000189800F0080070B90F980A9000200B90E2
:1021300023460AA9DDE91602FFF7F2F8019001989B
:1021400008B10198B8E4002211461698FFF727FC61
:1021500008B10120B0E40020AEE400004E4F204E54
:10216000414D45202020204641543332202020007C
:102170004E4F204E414D45202020204641542020E6
:10218000202020005252614172724161F8FFFF002D
:10219000F7B582B016460398019001A800F0F2FC52
:1021A0000546002D02DA0B2005B0F0BD0C4850F8B2
:1021B00025400CB100202070029810B10020029937
:1021C00008700749029841F825000EB90020EBE796
:1021D000002202A903A800F02FFE07463846E3E7D5
:1021E000340400202DE9F74FADF50E7D0446164668
:1021F00024B909200DF5117DBDE8F08F06F03F06EA
:10220000324681A98FA800F017FE0546002D73D134
:10221000819882908199C1F810D082A88F9900F09E
:1022200043FB05462DB99DF8330200F0800000B154
:10223000062506F01C00002856D045B1042D03D118
:1022400082A8FFF7A3FA054646F008060AE09DF8C3
:102250000E0200F0110008B1072503E006F00400AB
:1022600000B10825002D51D106F0080000284DD0FE
:1022700000F084FC8090899901F10E00809901F0B2
:10228000D6F8899901F11600809901F0D0F8899962
:10229000819800F09EFC814620208999C872002216
:1022A0008999819801F0B1F8899901F11C00002108
:1022B00001F0BDF801208199C870B9F1000F25D057
:1022C0008198D0F834A00022494682A801F050F845
:1022D0000546DDB95146819800F028FF0546A9F171
:1022E00001008199486111E085B99DF80E0200F066
:1022F000100010B1042509E063E006F0020028B1E7
:102300009DF80E0200F0010000B107254DB906F05E
:10231000080008B146F040068198406B2062899819
:102320006062002D5ED18999819800F052FCA06016
:10233000899901F11C0000F05FFCE0608198206049
:102340008198C088A080267400206074E06160617C
:102350004FF4805104F12800FDF71FFF06F0200024
:1023600078B3E06868B3E0686061819840898199DA
:10237000898900FB01FBA768D4F80C800CE0394682
:10238000204600F061FB0746012F00D80225781C8B
:1023900000B90125A8EB0B080DB9D845EFD8A76106
:1023A0007DB981988089B8FBF0F100FB118040B1C4
:1023B00039468198FEF79CFD8246BAF1000F01D1A3
:1023C00002250FE081988089B8FBF0F05044E0616D
:1023D000E26981994878012304F12801FFF700FBA5
:1023E00000B101250DB100202060284602E7F8B5B4
:1023F00004466946204601F0CEF80646002E44D138
:10240000207C00F0400000283FD0207C00F08000BD
:1024100070B1E26900994878012304F12801FFF7BF
:102420000FFB08B10120F8BD207C00F07F00207474
:1024300000F0A4FB0746216A009800F077FE0646EC
:102440001EBB656AE87A40F02000E8722946A2685F
:10245000206800F0DAFF05F11C00E16800F0E7FFFA
:10246000394605F1160000F0E2FF002105F11200E7
:1024700000F0E9FF01200099C870009800F0FAFF11
:102480000646207C00F0BF0020743046CBE72DE9E3
:10249000FF4F85B0044615469B46069802900020E3
:1024A000CBF8000003A9204601F075F804900498C9
:1024B00010B9607C049018B1049809B0BDE8F08FA1
:1024C000207C00F0020008B90720F6E700BF606931
:1024D00028446169884202D26069C0F1FF35D6E0C4
:1024E000606903998989B0FBF1F201FB12000028B1
:1024F0007DD1606903998989B0FBF1F0039949891D
:10250000491E00EA010ABAF1000F1ED1606938B90C
:10251000A76857B900212046FEF744FD074604E0AE
:102520002046A169FEF73EFD074607B9B2E0012F3C
:1025300002D102206074C0E7781C10B901206074D9
:10254000BBE7A761A06800B9A760207C00F080000D
:1025500078B1E26903994878012304F12801FFF773
:102560006FFA10B101206074A7E7207C00F07F00B3
:102570002074A1690398FEF7BBFC064616B9022039
:1025800060749AE7564403988089B5FBF0F9B9F175
:10259000000F31D00AEB090003994989884203D919
:1025A00003984089A0EB0A09039948784B463246C4
:1025B0000299FFF745FA10B1012060747DE7E069E8
:1025C000801B484511D2E069831B0398B0F80CC00A
:1025D000029803FB0C010398828904F12800FDF79F
:1025E000C3FD207C00F07F002074039800E017E01A
:1025F000808900FB09F835E0E069B0420FD0E1685E
:10260000606988420BD2039948780123324604F16D
:102610002801FFF7E5F910B1012060744DE7E6618C
:10262000606903998989B0FBF1F201FB12000399FB
:102630008989A1EB0008A84500D9A84660690399DB
:102640008989B0FBF1F201FB120104F12800084472
:10265000424601900299FDF787FD207C40F0800002
:10266000207400BFA5EB0805DBF800004044CBF860
:102670000000029840440290606940446061E16853
:102680006069884201D9606900E0E068E060002D7F
:102690007FF426AF00BF207C40F040002074002073
:1026A0000BE70000F0B502460E4600200021802A0C
:1026B00001DA104627E0B6F56A7F24D1124B45F2C5
:1026C00020570025102414E0A7EB050C05EB5C0156
:1026D0004FEA410C33F81CC0944500D10BE04FEA9F
:1026E000410C33F81CC0944501DA0D4600E00F465A
:1026F000641E002CE8D100BF2CB14FF0010C0CEB94
:10270000410C33F81C00F0BD9C8A01082DE9F04112
:1027100002460F4600200021802A01D290B22BE011
:10272000B2F5803F28D2B7F56A7F25D195B2134B19
:1027300045F2205C0026102414E0ACEB060806EB02
:1027400058014FEA410833F81880A84500D10BE042
:102750004FEA410833F81880A84501DA0E4600E038
:102760008C46641E002CE8D100BF2CB14FF001084C
:1027700008EB410833F81800BDE8F081183600086E
:1027800070B5B0F5803F4DD281B2B1F5805F01DA0E
:10279000254E00E0254E324600BF32F8023B0BB119
:1027A000994200DA3CE032F8024B2512E4B21E19DD
:1027B0008E4230DD092D2CD2DFE805F005090F131C
:1027C000171B1F232700CE1A32F8161021E0CE1A4D
:1027D00006F001068E1BB1B21BE0A1F11006B1B2EA
:1027E00017E0A1F12006B1B213E0A1F13006B1B2B9
:1027F0000FE0A1F11A06B1B20BE001F10806B1B287
:1028000007E0A1F15006B1B203E0A1F5E356B1B281
:1028100000BF00BF04E0002DBFD102EB4402BCE7C3
:1028200000BF084670BD000020DF020812E1020868
:102830002DE9FF4107460D4600213846FEF7E8FA2C
:102840000646022E06D0032E00D21DB9304604B033
:10285000BDE8F08100BF00240AE007F5FB7101EB41
:10286000041101F1080000F0C7F94DF82400641CC0
:10287000042CF2D30DB1681E00E00020044600BF16
:102880005DF8240028B15DF824103846FEF7C0FA40
:1028900000E0032006462DB9022E03D3601C044637
:1028A0000428EDD33046D2E72DE9F34104462768EA
:1028B00002E00198401C0190019800782F28F8D080
:1028C000019800785C28F4D00020A060019800787E
:1028D000202808D280212B20015500212046FEF718
:1028E000F8FF054631E000BF01A92046FEF7EAFBEC
:1028F000054605B128E02046FEF75DFE05462B2083
:10290000065D3DB1042D04D100BF06F0040000B9FE
:10291000052519E006F0040000B115E0A07900F0EB
:10292000100008B905250FE0B9892069B0FBF1F264
:1029300001FB120107F1380001EB0008414638465F
:1029400000F047F9A060CFE700BF2846BDE8FC8152
:1029500070B504460D46E1B20548FEF789F900BF9F
:1029600080210348FEF70AF90028F9D0204670BDFF
:10297000003801402DE9FF4F83B0074691461E46BF
:102980000498016839604168796001893981807AE9
:10299000B872052E19D9B04612E039F802BB0024EE
:1029A0000CE0584668F35F0080464FEA6B0B08F472
:1029B000803010B1234888EA0008641C102CF0D342
:1029C000B9F800000028E8D14646072400BF06F009
:1029D0000F0000F1300A3609BAF1390F03DD0AF1B0
:1029E000070000F0FF0A2046641E01A901F800A0BC
:1029F0000CB1002EEBD17E2001A90855002509E07D
:102A0000785DFEF73BFD20B1601EA84200D106E0D4
:102A10006D1C6D1CA54202D2785D2028F0D100BF4C
:102A200000BF082C04D22046641C01A9085C00E009
:102A3000202029466D1C7854082DF2D307B0BDE83C
:102A4000F08F0000211001002DE9F05F81460D4656
:102A5000D9F80040022D02D3E069A84202D84FF015
:102A6000010887E04FF0FF382078012804D00228C1
:102A70003AD003287AD156E02E4606EB5606A089B6
:102A8000B6FBF0F0A16A00EB010A5146204600F0C7
:102A90004DFB00B16DE03046761CA189B0FBF1F230
:102AA00001FB120104F13800475CA089B6FBF0F08D
:102AB000A16A00EB010A5146204600F037FB00B145
:102AC00057E0A089B6FBF0F100FB116104F138007A
:102AD000405C47EA002705F0010008B1380901E031
:102AE000C7F30B00804644E0B4F80CA00AEBDA70A0
:102AF0004010B5FBF0F0A16A00EB010B59462046EF
:102B000000F014FB00B134E06800A189B0FBF1F2E1
:102B100001FB120104F1380001EB000A504600F0FD
:102B200077F8804625E0B4F80CA04FEAEA700AEB8B
:102B300090708010B5FBF0F0A16A00EB010B5946D4
:102B4000204600F0F3FA00B113E0A800A189B0FB21
:102B5000F1F201FB120104F1380001EB000A5046CA
:102B600000F04AF820F0704803E0FFE74FF001085A
:102B700000BF00BF4046BDE8F09F0000004870471E
:102B80000000214670B504464FF0FF3026683146FC
:102B9000324601B970BD00BF12F8013B202B01D3B2
:102BA0003A2BF9D13A2B11D102250E78302E08DBC1
:102BB0000E78392E05DC8E1C964202D10E78A6F1D5
:102BC0003005022D01DA28462260E3E7002000BF2D
:102BD000E0E770B505460C4604F11A0000F018F85D
:102BE00006462878032805D104F1140000F010F8F7
:102BF00046EA0046304670BD0146C8788A7842EA07
:102C000000204A7842EA00200A7842EA0020704711
:102C1000014648780A7842EA0020704710B5FDF76F
:102C2000B9FB20204B490860012008600220091FE1
:102C30000860FDF763FF48A0FEF720F801224AA1D3
:102C40004A48FFF7A5FA04460D2C3AD148A0FEF7F2
:102C500015F84FF480534E4A002143A0FEF720FFA1
:102C6000044621464BA0FEF709F804BB4BA0FEF733
:102C700005F820203749091F08600120086002205C
:102C8000091D0860012238A10020FFF781FA0446DF
:102C9000214647A0FDF7F2FF012233A13348FFF799
:102CA00077FA0446214644A0FDF7E8FF0CE0202017
:102CB000284908600120091F08600220086000BF41
:102CC000FEE73FA0FDF7DAFF214641A0FDF7D6FF62
:102CD0000A2245A14748FFF785FA044620201D49EE
:102CE00008600120091F08600220091D0860002CEF
:102CF00024D141A0FDF7C2FF434B112243493D4877
:102D0000FFF7C5FB04466CB920201249091F086073
:102D10000120091D08600220091F08603CA0FDF782
:102D2000ADFF0BE020200B4908600120091F08605F
:102D30000220086021463BA0FDF7A0FF2D48FEF7CA
:102D40009DFE012208A10020FFF722FA0446002080
:102D500010BD0000140C0140BCD6D0A6D0A6B5C44E
:102D6000546573743A0D0A00313A0000440400209F
:102D7000C3BBD3D0CEC4BCFECFB5CDB3A3ACD0E8DB
:102D8000D2AABDF8D0D0B8F1CABDBBAF0D0A0000C1
:102D9000A42400203238202025640000466C617392
:102DA00068D2D1BEADB1BBB8F1CABDBBAF0D0A0090
:102DB00033342020256400003336202025640000B1
:102DC000CEC4BCFEB9D2D4D8B3C9B9A60D0A00008E
:102DD000BDF8D0D0CEC4BCFED0B4C8EBC0B228255C
:102DE00064290D0A00000000313A46617466732EB2
:102DF000747874007C140020CEC4BCFEB4B4BDA8AA
:102E0000B3C9B9A60D0A0000140000201804002060
:102E1000D0B4C8EBCAFDBEDDB3C9B9A6A3A10D0AE3
:102E200000000000CEC4BCFED0B4C8EBCAA7B0DC22
:102E3000282564290D0A00002DE9F74F84B00021F0
:102E4000059801600498FFF79DFE03900398002801
:102E500003DA0B2007B0BDE8F08FAF49039851F8B3
:102E600020400CB90C20F5E705980460069800F0A6
:102E7000FE000690207878B16078FEF7CBFD07461B
:102E800007F0010040B9069820B107F0040008B12E
:102E90000A20DFE70020DDE7002020700398607043
:102EA0006078FEF769FD074607F0010008B10320CE
:102EB000D0E7069820B107F0040008B10A20C9E75E
:102EC000607804F10C020221FEF769FD08B10120CF
:102ED000C0E7A089B0F5805F07DCA089B0F5007F6E
:102EE00003DBA089411E084008B10120B2E70021A0
:102EF0002046FFF79DFC0546042D01D10120A9E7DE
:102F0000022D01D30D20A5E7D4F8349004F143003D
:102F1000FFF77EFEA189884201D00D209AE704F1D7
:102F20004E00FFF775FE064626B904F15C00FFF778
:102F300063FE064626624820005DA070A078012846
:102F400004D0A078022801D00D2083E7A078464362
:102F50004520005D6081608918B16089411E08408C
:102F600008B10D2076E704F14900FFF751FE2081FA
:102F7000A089C11700EBD1614911228992FBF1F3BD
:102F800001FB132109B10D2064E704F14B00FFF7A9
:102F90003FFE8246BAF1000F04D104F15800FFF75A
:102FA0002BFE824604F14600FFF732FE8346BBF15A
:102FB000000F01D10D204DE7A089C11700EBD161B1
:102FC0004911228992FBF1F10BEB060211440291A7
:102FD00002998A4501D20D203CE70298AAEB000035
:102FE0006189B0FBF1F8B8F1000F01D10D2031E794
:102FF00000254A48804500D803254FF6F5708045E6
:1030000000D8022540F6F570804500D801250DB99D
:103010000D201FE708F10200E061C4F8249009EBDD
:103020000B00A062029848442063032D13D104F1E1
:103030006200FFF7EDFD08B10D200BE7208908B114
:103040000D2007E704F16400FFF7D6FDE062E069B8
:103050008000019014E0208908B90D20FAE6A06AEA
:103060003044E062022D02D1E069400007E0207F99
:1030700000F00100E16901EB410100EB510001901A
:10308000A089401E01990844A189B0FBF1F0216A92
:10309000884201D90D20DDE64FF0FF30A06160616C
:1030A00080202071032D2DD104F16800FFF7B0FDC1
:1030B000012827D109F10101204600F037F808BBAB
:1030C0000020207104F23620FFF7A2FD4AF65521B8
:1030D000884217D104F13800FFF78EFD104988426D
:1030E00010D104F50770FFF787FD0E49884209D11A
:1030F00004F50870FFF780FDA06104F50970FFF783
:103100007BFD6061257008480088401C80B206493C
:103110000880E08000209DE634040020F5FFFF0FCA
:1031200052526141727241613C04002070B5044604
:103130000D460026606BA84210D0204600F0E0F952
:1031400006465EB9607801232A4604F13801FEF78D
:1031500047FC10B14FF0FF3501266563304670BD66
:103160002DE9F05F04460D4616464FF00209022D88
:1031700072D3E069A8426FD92078012804D00228D0
:1031800057D0032811D179E02F4607EB5707A089C4
:10319000B7FBF0F0A16A00EB010A51462046FFF7A9
:1031A000C5FF8146B9F1000F00D09DE038467F1C75
:1031B000A189B0FBF1F201FB120104F1380001EB2F
:1031C000000805F0010028B1F1B298F8000061F3A1
:1031D0001F1000E0304688F800000120E070A08950
:1031E000B7FBF0F0A16A00EB010A51462046FFF759
:1031F0009DFF8146B9F1000F00D075E0A089B7FBB3
:10320000F0F100FB117104F1380001EB000805F04A
:10321000010010B1C6F3071006E098F8000000F0B6
:10322000F000C6F30321084388F800000120E07095
:103230005AE0B4F80CA00AEBDA704010B5FBF0F0DD
:10324000A16A00EB010B59462046FFF76FFF81464C
:10325000B9F1000F01D047E047E06800A189B0FB59
:10326000F1F201FB120104F1380001EB000AB1B2E6
:10327000504600F0E8F80120E07035E0B4F80CA00A
:103280004FEAEA700AEB90708010B5FBF0F0A16A8B
:1032900000EB010B59462046FFF748FF8146B9F184
:1032A000000F00D020E0A800A189B0FBF1F201FBE3
:1032B000120104F1380001EB000A5046FFF79CFCB4
:1032C00066F31B000646A800A189B0FBF1F201FBE2
:1032D000120104F1380001EB000A3146504600F0BB
:1032E000A6F80120E07000BF00BF4846BDE8F09F8F
:1032F0002DE9F04707460C461546984684F80D80A0
:103300000F20E07200202073002104F11A0000F069
:103310009AF8681E00EB800101EBC0090020064608
:10332000824600BF4FF6FF70864204D0484609F13E
:10333000010937F810600D4911F80A1008193146D3
:1033400000F081F80EB94FF6FF760AF101008246CF
:103350000D28E7D34FF6FF70864202D037F81900E8
:1033600008B945F040052570BDE8F087D435000860
:103370002DE9F04781460E4617464FF00008D9F870
:103380000040022E02D3E069B04202D80220BDE81C
:10339000F08767B100BF4FF0FF3239462046FFF794
:1033A000DFFE8046B8F1000F01D04046EFE700BFD6
:1033B00031464846FFF748FB054605B922E0012D96
:1033C00001D10220E3E7681C08B90120DFE70022F1
:1033D00031462046FFF7C4FE8046B8F1000F01D009
:1033E0004046D4E7D4E90610801E814206D2A06987
:1033F000401CA061207940F0010020712E46E06958
:10340000B042D5D800BF0020C1E770B506460C46D3
:103410001546A9B204F11A0000F015F83078032817
:1034200004D1290C04F1140000F00DF870BD00F86F
:10343000011B090A00F8011B090A00F8011B090A0F
:1034400000F8011B704700F8011B091200F8011B6E
:10345000704730B5014600200B2200BF431003EB3C
:10346000C01411F8015B6319D8B2531E1A00F5D1CC
:1034700030BD000070B50446204600F041F8054616
:10348000002D37D1207803282DD1207901282AD189
:10349000010304F13800FCF780FE4AF6552104F2DE
:1034A0003620FFF7D0FF144904F13800FFF7BFFFC3
:1034B000124904F50770FFF7BAFF04F50870A16917
:1034C000FFF7B5FF04F509706169FFF7B0FF606AA7
:1034D000401C60636078012304F13801626BFEF7E1
:1034E000AFFA00202071607800221146FEF757FAEB
:1034F00000B10125284670BD52526141727241618E
:1035000070B504460025E078E8B16078012304F145
:103510003801626BFEF794FAA0B90020E070A16A4E
:10352000606B401A216A88420DD2A07802280AD125
:10353000236A616BCA186078012304F13801FEF731
:103540007FFA00E00125284670BD2DE9F0410646CE
:10355000356815F8014B2046FDF790FF60B115F86E
:10356000017B3846FDF7A4FF18B94FF0FF30BDE8E6
:10357000F08107EB042084B24CB14FF46A7120460D
:10358000FFF790F8044614B94FF0FF30EFE7A0467C
:1035900035604046EBE770B504460D4609268CB110
:1035A000206878B12068007860B1A0882168C98857
:1035B000884207D121684878FEF72CFA00F0010014
:1035C00000B900260EB9206800E0002028603046CF
:1035D00070BD000001030507090E10121416181C17
:1035E0001E81FE0000407E80FE00000001000400FD
:1035F0001000400000010002000001000200040071
:10360000080010002000000007000000000000007B
:103610000000000000000000A400E8A1A700ECA149
:10362000A800A7A1B000E3A1B100C0A1B700A4A168
:10363000D700C1A1E000A4A8E100A2A8E800A8A8C2
:10364000E900A6A8EA00BAA8EC00ACA8ED00AAA878
:10365000F200B0A8F300AEA8F700C2A1F900B4A828
:10366000FA00B2A8FC00B9A80101A1A81301A5A8FD
:103670001B01A7A82B01A9A84401BDA84801BEA809
:103680004D01ADA86B01B1A8CE01A3A8D001ABA894
:10369000D201AFA8D401B3A8D601B5A8D801B6A865
:1036A000DA01B7A8DC01B8A85102BBA86102C0A822
:1036B000C702A6A1C902A5A1CA0240A8CB0241A87F
:1036C000D90242A89103A1A69203A2A69303A3A69E
:1036D0009403A4A69503A5A69603A6A69703A7A65A
:1036E0009803A8A69903A9A69A03AAA69B03ABA62A
:1036F0009C03ACA69D03ADA69E03AEA69F03AFA6FA
:10370000A003B0A6A103B1A6A303B2A6A403B3A6C7
:10371000A503B4A6A603B5A6A703B6A6A803B7A695
:10372000A903B8A6B103C1A6B203C2A6B303C3A638
:10373000B403C4A6B503C5A6B603C6A6B703C7A6F9
:10374000B803C8A6B903C9A6BA03CAA6BB03CBA6C9
:10375000BC03CCA6BD03CDA6BE03CEA6BF03CFA699
:10376000C003D0A6C103D1A6C303D2A6C403D3A667
:10377000C503D4A6C603D5A6C703D6A6C803D7A635
:10378000C903D8A60104A7A71004A1A71104A2A7E2
:103790001204A3A71304A4A71404A5A71504A6A79D
:1037A0001604A8A71704A9A71804AAA71904ABA769
:1037B0001A04ACA71B04ADA71C04AEA71D04AFA739
:1037C0001E04B0A71F04B1A72004B2A72104B3A709
:1037D0002204B4A72304B5A72404B6A72504B7A7D9
:1037E0002604B8A72704B9A72804BAA72904BBA7A9
:1037F0002A04BCA72B04BDA72C04BEA72D04BFA779
:103800002E04C0A72F04C1A73004D1A73104D2A72A
:103810003204D3A73304D4A73404D5A73504D6A7DC
:103820003604D8A73704D9A73804DAA73904DBA7A8
:103830003A04DCA73B04DDA73C04DEA73D04DFA778
:103840003E04E0A73F04E1A74004E2A74104E3A748
:103850004204E4A74304E5A74404E6A74504E7A718
:103860004604E8A74704E9A74804EAA74904EBA7E8
:103870004A04ECA74B04EDA74C04EEA74D04EFA7B8
:103880004E04F0A74F04F1A75104D7A710205CA95C
:10389000132043A81420AAA1152044A81620ACA1E7
:1038A0001820AEA11920AFA11C20B0A11D20B1A1EC
:1038B000252045A82620ADA13020EBA13220E4A18F
:1038C0003320E5A1352046A83B20F9A1AC2080009B
:1038D0000321E6A1052147A8092148A81621EDA149
:1038E000212159A96021F1A26121F2A26221F3A252
:1038F0006321F4A26421F5A26521F6A26621F7A254
:103900006721F8A26821F9A26921FAA26A21FBA223
:103910006B21FCA27021A1A27121A2A27221A3A2FB
:103920007321A4A27421A5A27521A6A27621A7A223
:103930007721A8A27821A9A27921AAA29021FBA18E
:103940009121FCA19221FAA19321FDA1962149A8E0
:1039500097214AA898214BA899214CA80822CAA1CE
:103960000F22C7A11122C6A115224DA81A22CCA14F
:103970001D22D8A11E22DEA11F224EA82022CFA1E7
:1039800023224FA82522CEA12722C4A12822C5A1E7
:103990002922C9A12A22C8A12B22D2A12E22D3A139
:1039A0003422E0A13522DFA13622C3A13722CBA1E8
:1039B0003D22D7A14822D6A14C22D5A1522250A8FF
:1039C0006022D9A16122D4A16422DCA16522DDA1FB
:1039D000662251A8672252A86E22DAA16F22DBA1CB
:1039E000952292A89922D1A1A522CDA1BF2253A8A8
:1039F0001223D0A16024D9A26124DAA26224DBA21E
:103A00006324DCA26424DDA26524DEA26624DFA296
:103A10006724E0A26824E1A26924E2A27424C5A27A
:103A20007524C6A27624C7A27724C8A27824C9A286
:103A30007924CAA27A24CBA27B24CCA27C24CDA256
:103A40007D24CEA27E24CFA27F24D0A28024D1A226
:103A50008124D2A28224D3A28324D4A28424D5A2F6
:103A60008524D6A28624D7A28724D8A28824B1A2EE
:103A70008924B2A28A24B3A28B24B4A28C24B5A236
:103A80008D24B6A28E24B7A28F24B8A29024B9A206
:103A90009124BAA29224BBA29324BCA29424BDA2D6
:103AA0009524BEA29624BFA29724C0A29824C1A2A6
:103AB0009924C2A29A24C3A29B24C4A20025A4A92B
:103AC0000125A5A90225A6A90325A7A90425A8A91A
:103AD0000525A9A90625AAA90725ABA90825ACA9EA
:103AE0000925ADA90A25AEA90B25AFA90C25B0A9BA
:103AF0000D25B1A90E25B2A90F25B3A91025B4A98A
:103B00001125B5A91225B6A91325B7A91425B8A959
:103B10001525B9A91625BAA91725BBA91825BCA929
:103B20001925BDA91A25BEA91B25BFA91C25C0A9F9
:103B30001D25C1A91E25C2A91F25C3A92025C4A9C9
:103B40002125C5A92225C6A92325C7A92425C8A999
:103B50002525C9A92625CAA92725CBA92825CCA969
:103B60002925CDA92A25CEA92B25CFA92C25D0A939
:103B70002D25D1A92E25D2A92F25D3A93025D4A909
:103B80003125D5A93225D6A93325D7A93425D8A9D9
:103B90003525D9A93625DAA93725DBA93825DCA9A9
:103BA0003925DDA93A25DEA93B25DFA93C25E0A979
:103BB0003D25E1A93E25E2A93F25E3A94025E4A949
:103BC0004125E5A94225E6A94325E7A94425E8A919
:103BD0004525E9A94625EAA94725EBA94825ECA9E9
:103BE0004925EDA94A25EEA94B25EFA9502554A852
:103BF000512555A8522556A8532557A8542558A8ED
:103C0000552559A856255AA857255BA858255CA8BC
:103C100059255DA85A255EA85B255FA85C2560A88C
:103C20005D2561A85E2562A85F2563A8602564A85C
:103C3000612565A8622566A8632567A8642568A82C
:103C4000652569A866256AA867256BA868256CA8FC
:103C500069256DA86A256EA86B256FA86C2570A8CC
:103C60006D2571A86E2572A86F2573A8702574A89C
:103C7000712575A8722576A8732577A8812578A85F
:103C8000822579A883257AA884257BA885257CA808
:103C900086257DA887257EA8882580A8892581A8D6
:103CA0008A2582A88B2583A88C2584A88D2585A8A4
:103CB0008E2586A88F2587A8932588A8942589A86E
:103CC00095258AA8A025F6A1A125F5A1B225F8A1E0
:103CD000B325F7A1BC258BA8BD258CA8C625F4A1CA
:103CE000C725F3A1CB25F0A1CE25F2A1CF25F1A1C7
:103CF000E2258DA8E3258EA8E4258FA8E52590A8C8
:103D00000526EFA10626EEA1092691A84026E2A1EC
:103D10004226E1A10030A1A10130A2A10230A3A15D
:103D20000330A8A10530A9A1063065A9073096A9DE
:103D30000830B4A10930B5A10A30B6A10B30B7A143
:103D40000C30B8A10D30B9A10E30BAA10F30BBA113
:103D50001030BEA11130BFA1123093A81330FEA1C4
:103D60001430B2A11530B3A11630BCA11730BDA1DB
:103D70001D3094A81E3095A8213040A9223041A9B9
:103D8000233042A9243043A9253044A9263045A92F
:103D9000273046A9283047A9293048A94130A1A495
:103DA0004230A2A44330A3A44430A4A44530A5A427
:103DB0004630A6A44730A7A44830A8A44930A9A4F7
:103DC0004A30AAA44B30ABA44C30ACA44D30ADA4C7
:103DD0004E30AEA44F30AFA45030B0A45130B1A497
:103DE0005230B2A45330B3A45430B4A45530B5A467
:103DF0005630B6A45730B7A45830B8A45930B9A437
:103E00005A30BAA45B30BBA45C30BCA45D30BDA406
:103E10005E30BEA45F30BFA46030C0A46130C1A4D6
:103E20006230C2A46330C3A46430C4A46530C5A4A6
:103E30006630C6A46730C7A46830C8A46930C9A476
:103E40006A30CAA46B30CBA46C30CCA46D30CDA446
:103E50006E30CEA46F30CFA47030D0A47130D1A416
:103E60007230D2A47330D3A47430D4A47530D5A4E6
:103E70007630D6A47730D7A47830D8A47930D9A4B6
:103E80007A30DAA47B30DBA47C30DCA47D30DDA486
:103E90007E30DEA47F30DFA48030E0A48130E1A456
:103EA0008230E2A48330E3A48430E4A48530E5A426
:103EB0008630E6A48730E7A48830E8A48930E9A4F6
:103EC0008A30EAA48B30EBA48C30ECA48D30EDA4C6
:103ED0008E30EEA48F30EFA49030F0A49130F1A496
:103EE0009230F2A49330F3A49B3061A99C3062A974
:103EF0009D3066A99E3067A9A130A1A5A230A2A5D8
:103F0000A330A3A5A430A4A5A530A5A5A630A6A539
:103F1000A730A7A5A830A8A5A930A9A5AA30AAA509
:103F2000AB30ABA5AC30ACA5AD30ADA5AE30AEA5D9
:103F3000AF30AFA5B030B0A5B130B1A5B230B2A5A9
:103F4000B330B3A5B430B4A5B530B5A5B630B6A579
:103F5000B730B7A5B830B8A5B930B9A5BA30BAA549
:103F6000BB30BBA5BC30BCA5BD30BDA5BE30BEA519
:103F7000BF30BFA5C030C0A5C130C1A5C230C2A5E9
:103F8000C330C3A5C430C4A5C530C5A5C630C6A5B9
:103F9000C730C7A5C830C8A5C930C9A5CA30CAA589
:103FA000CB30CBA5CC30CCA5CD30CDA5CE30CEA559
:103FB000CF30CFA5D030D0A5D130D1A5D230D2A529
:103FC000D330D3A5D430D4A5D530D5A5D630D6A5F9
:103FD000D730D7A5D830D8A5D930D9A5DA30DAA5C9
:103FE000DB30DBA5DC30DCA5DD30DDA5DE30DEA599
:103FF000DF30DFA5E030E0A5E130E1A5E230E2A569
:10400000E330E3A5E430E4A5E530E5A5E630E6A538
:10401000E730E7A5E830E8A5E930E9A5EA30EAA508
:10402000EB30EBA5EC30ECA5ED30EDA5EE30EEA5D8
:10403000EF30EFA5F030F0A5F130F1A5F230F2A5A8
:10404000F330F3A5F430F4A5F530F5A5F630F6A578
:10405000FC3060A9FD3063A9FE3064A90531C5A814
:104060000631C6A80731C7A80831C8A80931C9A8B0
:104070000A31CAA80B31CBA80C31CCA80D31CDA880
:104080000E31CEA80F31CFA81031D0A81131D1A850
:104090001231D2A81331D3A81431D4A81531D5A820
:1040A0001631D6A81731D7A81831D8A81931D9A8F0
:1040B0001A31DAA81B31DBA81C31DCA81D31DDA8C0
:1040C0001E31DEA81F31DFA82031E0A82131E1A890
:1040D0002231E2A82331E3A82431E4A82531E5A860
:1040E0002631E6A82731E7A82831E8A82931E9A830
:1040F0002032E5A22132E6A22232E7A22332E8A250
:104100002432E9A22532EAA22632EBA22732ECA21F
:104110002832EDA22932EEA231325AA9A33249A99E
:104120008E334AA98F334BA99C334CA99D334DA99B
:104130009E334EA9A1334FA9C43350A9CE3351A900
:10414000D13352A9D23353A9D53354A9004EBBD28F
:10415000014EA1B6024E4081034EDFC6044E41819E
:10416000054E4281064E4381074EF2CD084EC9D519
:10417000094EFDC80A4ECFC90B4EC2CF0C4EA2D875
:104180000D4EBBB20E4EEBD30F4E4481104EA4D851
:10419000114EF3B3124E4581134EA8D7144ED2C719
:1041A000154EA7D8164EC0CA174E4681184EF0C7F6
:1041B000194EFBB11A4EB5D21B4ED4B41C4EABB641
:1041C0001D4EBFCB1E4EA9D81F4E4781204E4881A1
:1041D000214E4981224EAAB6234E4A81244EBDC1AA
:1041E000254ECFD1264E4B81274EA5C9284EADD89E
:1041F000294E4C812A4EF6B82B4EBED12C4EDCE314
:104200002D4ED0D62E4E4D812F4E4E81304EE1B7E1
:10421000314E4F81324EAEB4334E5081344ED9C1FF
:10422000354E5181364EBCD8374E5281384EE8CD8E
:10423000394EA4B53A4EAACE3B4EF7D63C4E5381EA
:104240003D4EF6C03E4ED9BE3F4EAFD8404E548193
:10425000414E5581424E5681434ECBC4444E578108
:10426000454EC3BE464E5881474EB1D8484EB4C3A2
:10427000494EE5D24A4E59814B4EAED64C4EDACE1F
:104280004D4EA7D54E4EF5BA4F4EA6B7504ED6C09E
:10429000514E5A81524EB9C6534ED2C5544EC7C71D
:1042A000554E5B81564ED4B9574E5C81584ECBB3B8
:1042B000594ED2D25A4E5D815B4E5E815C4EBFD864
:1042C0005D4EC5BE5E4EF2C65F4EB2D2604EB0CFFE
:1042D000614EE7CF624E5F81634E6081644E6181C3
:1042E000654E6281664EE9CA674E6381684E64819D
:1042F000694EC0D86A4E65816B4E66816C4E67818F
:104300006D4E68816E4E69816F4E6A81704EF2C249
:10431000714ED2C2724E6B81734EE9C8744E6C817D
:10432000754E6D81764E6E81774E6F81784E7081BD
:10433000794E71817A4E72817B4E73817C4E74818D
:104340007D4E75817E4EACC77F4E7681804E7781E3
:10435000814E7881824E7981834E7A81844E7B8131
:10436000854E7C81864ECBC1874E7D81884EE8D3B9
:10437000894EF9D58A4E7E818B4EC2CA8C4EFEB6CE
:104380008D4EA1D88E4EDAD38F4EF7BF904E8081DE
:10439000914EC6D4924EA5BB934EC1D8944EE5CE55
:1043A000954EAEBE964E8181974E8281984EA8D88A
:1043B000994E83819A4EC7D19B4EA9D09C4E848141
:1043C0009D4E85819E4E86819F4EBDD8A04EEFD9D1
:1043D000A14EF6CDA24EBABFA34E8781A44EBBBD5F
:1043E000A54EA5BAA64EE0D2A74EFAB2A84EE0BAA4
:1043F000A94EB6C4AA4E8881AB4EEDCFAC4EA9BE35
:10440000AD4EA4CDAE4EC1C1AF4E8981B04E8A81B2
:10441000B14E8B81B24ED7C7B34EF1D9B44E8C8119
:10442000B54EF4D9B64E8D81B74E8E81B84E8F8180
:10443000B94E9081BA4ECBC8BB4EE9D8BC4E9181E3
:10444000BD4E9281BE4E9381BF4EDAD2C04EB2CAEB
:10445000C14ECAC8C24EECD8C34EEAD8C44EC6D864
:10446000C54EF6BDC64ECDC6C74EF0B3C84E9481FC
:10447000C94EEBD8CA4EF1BDCB4EE9BDCC4E9581AD
:10448000CD4ED4C8CE4ED3B4CF4E9681D04E978168
:10449000D14ED8C2D24E9881D34ED6B2D44ED0D7B8
:1044A000D54ECBCAD64EFBCBD74ECCD5D84EB6B810
:1044B000D94EC9CFDA4E9981DB4E9A81DC4E9B8171
:1044C000DD4EDAD9DE4EF0D8DF4EAAC7E04E9C8131
:1044D000E14EEED8E24E9D81E34EFAB4E44EEEC1D9
:1044E000E54ED4D2E64E9E81E74E9F81E84EEDD850
:1044F000E94EA081EA4EC7D2EB4EEFD8EC4EC7C3CF
:10450000ED4EA181EE4EA281EF4EA381F04EF6D189
:10451000F14EA481F24ED9D6F34EF2D8F44EA581D5
:10452000F54EF5D8F64EFEBCF74EDBBCF84EA68134
:10453000F94EA781FA4EA881FB4ECEC8FC4EA98148
:10454000FD4EDDB7FE4EAA81FF4EC2B7004FAB81D4
:10455000014FF3C6024FAC81034FAD81044FAE81D2
:10456000054FAF81064FB081074FB181084FB2812F
:10457000094FF8D80A4FC1D20B4FB3810C4FB48109
:104580000D4FE9CE0E4FBFBC0F4FFCB7104FA5B774
:10459000114FDDD0124FB581134FB681144FB78143
:1045A000154FB881164FB981174FDAD6184FC5D3BA
:1045B000194FEFBB1A4FE1BB1B4FF1D81C4FBA810B
:1045C0001D4FBB811E4FA1C91F4FB0CE204FABB4B2
:1045D000214FBC81224FF3D8234FBD81244FCBC93B
:1045E000254FF6D8264FD7C2274FF7D8284FBE8180
:1045F000294FBF812A4FB1CE2B4FF9D82C4FC08104
:104600002D4FC1812E4FC2812F4FAEB2304FC0B956
:10461000314FC381324FA3D9334FC481344FE9B0F6
:10462000354FC581364FE6C1374FC681384FECC98B
:10463000394FC7813A4FC5CB3B4FC8813C4FC6CBA2
:104640003D4FA4D93E4FC9813F4FCA81404FCB81D6
:10465000414FCC81424FCD81434FE8B5444FCE818D
:10466000454FCF81464FABB5474FD081484FD181A1
:10467000494FD2814A4FD3814B4FD4814C4FD58182
:104680004D4FBBCE4E4FCDB54F4FA1D7504FF4D766
:10469000514FD3D3524FD681534FE5CC544FD7818E
:1046A000554FCEBA564FD881574FA2D9584FDCD963
:1046B000594FE0D35A4FFDD85B4FF0B75C4FF7D757
:1046C0005D4FFED85E4FFAD85F4FA1D9604FE3C46B
:1046D000614FD981624FDA81634FB6D3644FF4D80A
:1046E000654FDDD9664FDB81674FFBD8684FDC81B2
:1046F000694FE5C56A4FDD816B4FDE816C4FD0C0DD
:104700006D4FDF816E4FE0816F4FF0D1704FDBB0A6
:10471000714FE181724FE281734FD1BC744FA6D9C2
:10472000754FE381764FA5D9774FE481784FE581C6
:10473000794FE6817A4FE7817B4FACD97C4FAED978
:104740007D4FE8817E4FABD97F4FB9CA804FE98159
:10475000814FEA81824FEB81834FA9D9844FB6D62E
:10476000854FEC81864FED81874FEE81884FDEB318
:10477000894FA8D98A4FEF818B4FFDC08C4FF081B4
:104780008D4FCCCA8E4FF1818F4FAAD9904FF281B5
:10479000914FA7D9924FF381934FF481944FB0D9A1
:1047A000954FF581964FF681974FB1B6984FF781A7
:1047B000994FF8819A4FF9819B4FA9B99C4FFA8183
:1047C0009D4FC0D29E4FFB819F4FFC81A04FC0CF19
:1047D000A14FFD81A24FFE81A34FC2C2A44F4082D0
:1047E000A54FC4BDA64FECD5A74FE0B2A84FC8C790
:1047F000A94FEBBFAA4FADD9AB4F4182AC4FAFD958
:10480000AD4F4282AE4FEACEAF4FEEBAB04F4382C9
:10481000B14F4482B24F4582B34F4682B44F478274
:10482000B54FD6C7B64F4882B74F4982B84F4A8274
:10483000B94F4B82BA4F4C82BB4F4D82BC4F4E8218
:10484000BD4F4F82BE4F5082BF4FE3B1C04F518228
:10485000C14F5282C24F5382C34FD9B4C44FEDB639
:10486000C54FB4D9C64F5482C74F5582C84F5682E0
:10487000C94F5782CA4FA1BFCB4F5882CC4F5982E4
:10488000CD4F5A82CE4FDED9CF4FCEC7D04FFEC0CC
:10489000D14FB8D9D24F5B82D34F5C82D44F5D8267
:1048A000D54F5E82D64F5F82D74FD7CBD84FFDB75B
:1048B000D94F6082DA4FB5D9DB4F6182DC4FB7D96F
:1048C000DD4FA3B1DE4FE1D3DF4FB9D9E04F6282B4
:1048D000E14FC5D0E24F6382E34FB6D9E44F648223
:1048E000E54F6582E64FB1D9E74F6682E84FB2D90E
:1048F000E94FA9C1EA4FB3D9EB4F6782EC4F688209
:10490000ED4FF3BCEE4FDED0EF4FA9B8F04F698208
:10491000F14FE3BEF24F6A82F34FBDD9F44F6B8281
:10492000F54F6C82F64F6D82F74F6E82F84FBAD911
:10493000F94F6F82FA4FB3B0FB4F7082FC4F718218
:10494000FD4F7282FE4FC2D9FF4F738200507482B6
:10495000015075820250768203507782045078822B
:104960000550798206507A8207507B8208507C82FB
:1049700009507D820A507E820B5080820C50C4D92F
:104980000D50B6B10E5081820F50BFD910508282A7
:10499000115083821250B9B5135084821450F3BE63
:1049A0001550858216508682175087821850C8CCC1
:1049B0001950F2BA1A50D0D21B5088821C50C3D959
:1049C0001D5089821E508A821F50E8BD20508B8264
:1049D0002150ABB322508C8223508D8224508E8282
:1049E0002550C5D92650EBBE27508F822850C6D9F6
:1049F0002950BBD92A50DFC42B5090822C50BED9ED
:104A00002D50C1D92E50C0D92F5091823050928252
:104A10003150938232509482335095823450968232
:104A200035509782365098823750998238509A8202
:104A300039509B823A50AED53B509C823C50B5D603
:104A40003D509D823E50E3C73F509E8240509F8222
:104A50004150A0824250A1824350C8D94450A28202
:104A60004550A3824650A4824750D9BC4850CAD969
:104A70004950A5824A50A6824B50A7824C50BCD9BF
:104A80004D50A8824E50CBD94F50ABC65050A98242
:104A90005150AA825250AB825350AC825450AD82D6
:104AA0005550C9D95650AE825750AF825850B08237
:104AB0005950B1825A50F6D75B50B2825C50A3CDA8
:104AC0005D50B3825E50B4825F50B5826050B68252
:104AD0006150B7826250B8826350B9826450BA8222
:104AE0006550A1BD6650BB826750BC826850BD82D4
:104AF0006950BE826A50BF826B50C0826C50CCD964
:104B00006D50C1826E50C2826F50C3827050C48299
:104B10007150C5827250C6827350C7827450C88269
:104B20007550C9827650BCC57750B5CD7850CA82D1
:104B30007950CB827A50CC827B50CDD97C50CD82BB
:104B40007D50CE827E50C7D97F50A5B38050FEBF26
:104B50008150CF828250D0828350D1828450D282C1
:104B60008550B5B88650D3828750D4828850FCC017
:104B70008950D5828A50D6828B50D7828C50D88269
:104B80008D50F8B08E50D9828F50DA829050DB82EF
:104B90009150DC829250DD829350DE829450DF820D
:104BA0009550E0829650E1829750E2829850E382DD
:104BB0009950E4829A50E5829B50E6829C50E782AD
:104BC0009D50E8829E50E9829F50EA82A050EB827D
:104BD000A150EC82A250ED82A350F6B4A450EE8214
:104BE000A550CED9A650EF82A750CFD9A850A2B4D5
:104BF000A950D0D9AA50F082AB50F182AC50DFB4AA
:104C0000AD50F282AE50F382AF50F482B050F582D4
:104C1000B150F682B250C1B0B350F782B450F882AE
:104C2000B550F982B650FA82B750FB82B850FC8278
:104C3000B950FD82BA50D1D9BB50B5C9BC50FE8223
:104C4000BD504083BE504183BF504283C050438318
:104C5000C1504483C2504583C3504683C4504783E8
:104C6000C5504883C6504983C7504A83C8504B83B8
:104C7000C9504C83CA504D83CB504E83CC504F8388
:104C8000CD505083CE505183CF50F1CFD05052836E
:104C9000D1505383D2505483D3505583D45056832C
:104CA000D5505783D650D2D9D7505883D85059832E
:104CB000D9505A83DA50C5C1DB505B83DC505C832A
:104CC000DD505D83DE505E83DF505F83E0506083A4
:104CD000E1506183E2506283E3506383E450648374
:104CE000E5506583E650D6D9E750AEC9E8506683F3
:104CF000E9506783EA506883EB506983EC50D5D95B
:104D0000ED50D4D9EE50D7D9EF506A83F0506B8371
:104D1000F1506C83F2506D83F350DBCBF4506E8313
:104D2000F550A9BDF6506F83F7507083F85071832A
:104D3000F9507283FA507383FB50A7C6FC507483FA
:104D4000FD507583FE507683FF5077830051788342
:104D50000151798302517A8303517B8304517C830F
:104D600005517D830651D3D90751D8D908517E8387
:104D7000095180830A5181830B51D9D90C51828307
:104D80000D5183830E5184830F5185831051868387
:104D9000115187831251E5C81351888314518983B7
:104DA00015518A8316518B8317518C8318518D832B
:104DB00019518E831A518F831B5190831C519183FB
:104DC0001D5192831E5193831F51948320519583CB
:104DD0002151DCC02251968323519783245198831B
:104DE0002551998326519A8327519B8328519C836F
:104DF00029519D832A519E832B519F832C51A0833F
:104E00002D51A1832E51A2832F51A3833051A4830E
:104E10003151A5833251A6833351A7833451A883DE
:104E20003551A9833651AA833751AB833851AC83AE
:104E30003951AD833A51AE833B51AF833C51B0837E
:104E40003D51B1833E51B2833F51F9B64051A3D891
:104E50004151CAD44251B3834351AAD44451D6D00C
:104E60004551E4B34651D7D54751B4834851C8CFD3
:104E70004951E2B94A51B5834B51CBBF4C51B6832E
:104E80004D51E2C34E51B7834F51B8835051B9834E
:104E90005151D2B65251BA835351BB835451C3CDF1
:104EA0005551EED95651F0D95751BC835851BD8355
:104EB0005951BE835A51B3B55B51BF835C51B5B6EE
:104EC0005D51C0835E51C1835F51C2836051C38312
:104ED0006151C4836251A4BE6351C5836451C683CA
:104EE0006551EBC86651C7836751C8836851ABC829
:104EF0006951C9836A51CA836B51CBB06C51ABB94C
:104F00006D51F9C16E51E2D96F51CB837051BCC064
:104F10007151B2B97251CC837351D8B97451CBD09D
:104F20007551F8B17651E4C67751DFBE7851E4B5DA
:104F30007951C8D77A51CD837B51F8D17C51E6BCE9
:104F40007D51DECA7E51CE837F51CF838051BDBC5F
:104F50008151E6D98251E7D88351D0838451D183DE
:104F60008551DAC48651D2838751D3838851D4B80E
:104F70008951BDC88A51D4838B51D5838C51E1B2FC
:104F80008D51D9D48E51D6838F51D7839051D883E8
:104F90009151D9839251B0C39351DA839451DB83F9
:104FA0009551E1C39651A2DA9751DFC89851DC833D
:104FB0009951B4D09A51DD839B51FCBE9C51A9C537
:104FC0009D51DE839E51DF839F51E083A051DAB96A
:104FD000A151E183A251A3DAA351E283A451A9D440
:104FE000A551A4DAA651E383A751E483A851E58330
:104FF000A951E683AA51E783AB51FBD9AC51ACB6BA
:10500000AD51E883AE51E983AF51EBB7B051F9B17F
:10501000B151FCD9B251E5B3B351F6BEB451EA83F4
:10502000B551F6BFB651B1D2B751E4C0B851EB8318
:10503000B951EC83BA51ED83BB51B3B6BC51FED923
:10504000BD51FDD9BE51EE83BF51EF83C051BBBEF0
:10505000C151F083C251F183C351F283C451E0C600
:10506000C551F383C651BCD7C751A1DAC851F483E7
:10507000C951B9C1CA51F583CB51F2B5CC51E8C180
:10508000CD51F683CE51F783CF51F5BCD051F88383
:10509000D151D5B4D251F983D351FA83D451FB8382
:1050A000D551FC83D651FD83D751FE83D85140841E
:1050B000D9514184DA514284DB51DDC1DC51438452
:1050C000DD51FDC4DE514484DF514584E051B8BC5C
:1050D000E151B2B7E2514684E3514784E451EFB75E
:1050E000E5514884E6514984E7514A84E8514B84AC
:1050F000E9514C84EA514D84EB51ECD9EC514E848A
:10510000ED51BEC6EE514F84EF51ADBFF051CBBB58
:10511000F1515084F2515184F351CAB5F451528483
:10512000F551C9DBF651D7D0F7515384F851B9CDB9
:10513000F951BCB0FA51F6B3FB51F7BBFC51CADBD5
:10514000FD51AFBAFE515484FF51E4D40052B6B5BC
:105150000152F3B50252D6D80352D0C80452558436
:10516000055256840652D6B70752D0C70852D7D830
:10517000095257840A52AFBF0B5258840C525984BB
:105180000D52BBDB0E52D8D80F525A8410525B849A
:105190001152CCD01252AEBB13525C8414525D84B7
:1051A00015525E841652BEEB1752D0C11852F5C18B
:1051B0001952F2D41A52D5B81B52B4B41C525F849F
:1051C0001D52F5B31E5260841F5261842052BEC925
:1051D0002152628422526384235264842452D0C5B3
:1051E0002552658426526684275267842852D9C581
:1051F0002952FBC02A5268842B52F0B12C52698488
:105200002D52D9D82E52CEB92F526A843052BDB504
:1052100031526B8432526C843352DAD834526D84FA
:1052200035526E843652C6D63752A2CB3852AFC8EA
:105230003952B2C93A52CCB43B52CCBF3C526F84C3
:105240003D52F4B93E5270843F52DBD84052DCD814
:105250004152E7B64252C1BC4352EACC4452718437
:1052600045527284465273844752748448527584FE
:10527000495276844A52F7CF4B5277844C52DDD84C
:105280004D52B0C74E5278844F5279845052D0B9A3
:105290005152A3BD52527A8453527B845452DECC75
:1052A00055527C845652CAC657527D8458527E84C9
:1052B000595280845A5281845B5282845C52E0D875
:1052C0005D5283845E52DED85F528484605285844E
:1052D0006152DFD862528684635287846452888424
:1052E0006552FEB0665289846752E7BE68528A846E
:1052F0006952A3CA6A52F4BC6B528B846C528C8480
:105300006D528D846E528E846F52B1B870528F84FC
:10531000715290847252EEB8735291847452928496
:1053200075529384765294847752958478529684F9
:10533000795297847A5298847B5299847C529A84C9
:105340007D52E2D87E529B847F52CBBD80529C849A
:105350008152E4D88252E3D883529D8484529E8441
:1053600085529F848652A0848752A1848852FCC5AE
:105370008952A2848A52A3848B52A4848C52A5841D
:105380008D52A6848E52A7848F52A8849052E5D85D
:105390009152A9849252AA849352E6D89452AB8433
:1053A0009552AC849652AD849752AE849852AF8495
:1053B0009952B0849A52B1849B52A6C19C52B28435
:1053C0009D52B0C89E52ECB09F52A6B9A052D3BC19
:1053D000A152F1CEA252BDDBA352D3C1A452B384D9
:1053E000A552B484A652B584A752B684A852AFB6CB
:1053F000A952FAD6AA52ACC5AB52D9BDAC52BEDB4B
:10540000AD52BFDBAE52B784AF52B884B052B9844C
:10541000B152F8C0B252A2BEB352CDC0B452BA8497
:10542000B552BB84B652BC84B752BD84B852BE8458
:10543000B952BF84BA52C084BB52C184BC52C28428
:10544000BD52C384BE52C0DBBF52C6CAC052C48460
:10545000C152C584C252C684C352AAB2C452C784C0
:10546000C552C884C652C984C752C2D3C852CA845E
:10547000C952E3C3CA52CB84CB52ABD1CC52CC84F9
:10548000CD52CD84CE52CE84CF52CF84D052C2DB07
:10549000D152D084D252D5C0D352D184D452D284E6
:1054A000D552D384D652C3DBD752D484D852B1BF9D
:1054B000D952D584DA52D684DB52D784DC52D884D0
:1054C000DD52D984DE52DA84DF52BCC4E052DB8480
:1054D000E152DC84E252DD84E352DE84E452DAC736
:1054E000E552DF84E652E084E752E184E852E28448
:1054F000E952E384EA52E484EB52E584EC52E68418
:10550000ED52E784EE52E884EF52E984F052C4DBB6
:10551000F152EA84F252EB84F352EC84F452ED84BB
:10552000F552EE84F652EF84F752F084F852F1848B
:10553000F952E8D9FA52D7C9FB52F284FC52F384EB
:10554000FD52F484FE52B4B9FF52F0CE0053C8D4D9
:105550000153F5840253F6840353F7840453F8840B
:105560000553FCB00653D2B40753F9840853D9D07D
:105570000953FA840A53FB840B53FC840C53FD84B7
:105580000D53E9D90E53FE840F53CBDE1053EBD9E4
:10559000115340851253418513534285145343855B
:1055A0001553B0D81653AFBB1753B1B11853448538
:1055B0001953D7B31A53CED81B5345851C53468570
:1055C0001D53D1D41E5347851F5348852053B3BD67
:1055D0002153EFBF225349852353BBCF24534A8520
:1055E00025534B852653D0D827534C8528534D85BA
:1055F00029534E852A53CBB72B534F852C535085B7
:105600002D5351852E53D1D82F5352853053538566
:10561000315354853253558533535685345357850A
:10562000355358853653598537535A8538535B85DA
:105630003953A5C63A53F8C73B53BDD23C535C859A
:105640003D535D853E53D2D83F53E4C440535E85FD
:105650004153AECA42535F854353A7C74453608545
:105660004553A6D8465361854753FDC94853E7CEF5
:105670004953DCBB4A53EBB04B5362854C536385B3
:105680004D5364854E53AABB4F53ADD050536585DF
:105690005153B0B15253E4D75353BFD754536685D7
:1056A0005553A5B55653F4C25753CFC458536785C5
:1056B000595368855A53A9B25B5369855C53B7B295
:1056C0005D536A855E53E5B15F53B2DF6053BCD56D
:1056D0006153A8BF6253ACC26353D5D86453B1C2FF
:1056E00065536B856653D4D86753D4CE68536C85A5
:1056F0006953E0DA6A536D856B53C0CE6C536E8587
:105700006D536F856E53B4D86F53AEC37053A1D32E
:105710007153A3CE725370857353B4BC7453B4C821
:105720007553D1C2765371857753EDBE7853B6D099
:10573000795372857A53E1DA7B5373857C53748590
:105740007D5375857E5376857F53E4C78053778577
:10575000815378858253A7B3835379858453F2B6F6
:105760008553FCCC8653FAC087537A8588537B8552
:105770008953F7C08A537C858B53B9D18C53E1D1BF
:105780008D53C7D88E537D858F537E8590538085EA
:105790009153818592538285935383859453848555
:1057A0009553DEB296538585975386859853E5C009
:1057B000995387859A53F1BA9B5388859C53898561
:1057C0009D53C8D89E538A859F53ADD4A0538B85D3
:1057D000A1538C85A253E1CFA353C9D8A4538D857F
:1057E000A553CAD8A653C3CFA7538E85A853F8B3E1
:1057F000A953C7BEAA538F85AB539085AC539185EF
:10580000AD539285AE53CBD8AF539385B0539485A7
:10581000B1539585B2539685B3539785B453988504
:10582000B5539985B653CCDBB7539A85B8539B854E
:10583000B9539C85BA539D85BB53A5C8BC539E855F
:10584000BD539F85BE53A085BF53D8CFC053A185FC
:10585000C153FEC8C253CEB2C353A285C453A3855D
:10586000C553A485C653A585C753A685C853D6D3AB
:10587000C953E6B2CA53B0BCCB53D1D3CC53ABCB94
:10588000CD53B4B7CE53A785CF53A885D053A985A0
:10589000D153A2B7D253AA85D353AB85D453E5CA0B
:1058A000D553AC85D653A1C8D753DCCAD853E4B17D
:1058B000D953F0D0DA53AD85DB53D1C5DC53AE8577
:1058C000DD53AF85DE53B085DF53C5DBE053FEB556
:1058D000E153B185E253B285E353DABFE453C5B96E
:1058E000E553E4BEE653EDC1E753B385E853B6DFB5
:1058F000E953B5DFEA53BBD6EB53D0BDEC53D9D552
:10590000ED53C8B0EE53A3B6EF53C9BFF053A8CCC4
:10591000F153B3DFF253B7CAF353D2D3F453B48580
:10592000F553CFD8F653B6D2F753C5BAF853BECB1A
:10593000F953BECCFA53B585FB53B7DFFC53F0B532
:10594000FD53B4DFFE53B685FF53B7850054B885C9
:105950000154F5D30254B9850354D4B30454F7B8B1
:105960000554BA850654BADF0754BB850854CFBA2C
:105970000954AABC0A54F5B50B54BC850C54ACCDE3
:105980000D54FBC30E54F3BA0F54F4C01054C2CDDF
:105990001154F2CF1254B8DF1354C5CF1454BD853F
:1059A0001554C0C21654B9DF1754F0C21854BE853E
:1059B0001954BF851A54C0851B54FDBE1C54C185A3
:1059C0001D54DFC11E54CCCD1F54F7D22054CDB787
:1059D0002154C1DF2254C2852354C4DF2454C3851B
:1059E0002554C4852654F1B72754C9B02854D6B6D7
:1059F0002954D4B72A54C5852B54ACBA2C54FDCCA9
:105A00002D54D4BF2E54B1CB2F54F4C63054C68578
:105A10003154A8D63254C5DF3354C7853454E2CE4E
:105A20003554B3B33654C8853754C9853854FCCE81
:105A30003954B5B43A54CA853B54C7CE3C54F0BA35
:105A40003D54CB853E54E1CE3F54CC854054BDD12E
:105A50004154CD854254CE854354C0DF4454CF8554
:105A60004554D0854654F4B44754D1854854CAB3FC
:105A70004954D2854A54E6B84B54BBDF4C54D385C5
:105A80004D54D4854E54D5854F54D6855054C5C4F5
:105A90005154D7855254BCDF5354BDDF5454BEDF3C
:105AA0005554BBC55654BFDF5754C2DF5854B1D408
:105AB0005954C3DF5A54D8855B54BAC75C54D8CE06
:105AC0005D54D9855E54DA855F54DB856054DC858E
:105AD0006154DD856254D8C46354DE856454CADFE2
