:020000040800F2
:100000002004002045010008690A00084F03000889
:10001000650A00082F020008650E000800000000B5
:10002000000000000000000000000000810B00083C
:1000300033020008000000006B0A00086D0C000885
:100040005F0100085F0100085F0100085F01000810
:100050005F0100085F0100085F0100085F01000800
:100060005F0100085F0100085F0100085F010008F0
:100070005F0100085F0100085F0100085F010008E0
:100080005F0100085F0100085F0100085F010008D0
:100090005F0100085F0100085F0100085F010008C0
:1000A0005F0100085F0100085F0100085F010008B0
:1000B0005F0100085F0100085F0100085F010008A0
:1000C0005F0100085F0100085F0100085F01000890
:1000D0005F0100085F0100085F0100085F01000880
:1000E0005F0100085F0100085F0100085F01000870
:1000F0005F0100085F0100085F0100085F01000860
:100100005F0100085F0100085F0100085F0100084F
:100110005F0100085F0100085F0100085F0100083F
:100120005F0100085F0100085F0100085F0100082F
:10013000DFF80CD000F04AF80048004731130008FF
:10014000200400200648804706480047FEE7FEE7F7
:10015000FEE7FEE7FEE7FEE7FEE7FEE7FEE7FEE777
:10016000710C0008310100082DE9F05F0546002000
:1001700092469B4688460646814640241BE0284618
:1001800041464746224600F042F853465A46C01AB6
:10019000914110D311461846224600F029F82D1A35
:1001A00067EB01084F4622460120002100F020F8AD
:1001B00017EB00094E41201EA4F10104DFDC484684
:1001C00031462A464346BDE8F09F0000064C074DE5
:1001D00006E0E06840F0010394E807009847103417
:1001E000AC42F6D3FFF7A8FFAC130008CC1300080D
:1001F000202A04DB203A00FA02F1002070479140E7
:10020000C2F1200320FA03F3194390407047202ADB
:1002100004DB203A21FA02F00021704721FA02F3B0
:10022000D040C2F12002914008431946704700BFF8
:10023000FEE770472DE9F041024600250026002028
:1002400000230024002791F803C00CF00F0591F85B
:1002500003C00CF0100CBCF1000F03D091F802C0E9
:100260004CEA050591F800C0BCF1000F31D01468CC
:1002700000202BE04FF0010C0CFA00F3B1F800C0A5
:100280000CEA03069E4220D183004FF00F0C0CFABB
:1002900003F7BC4305FA03FC4CEA040491F803C0DD
:1002A000BCF1280F06D14FF0010C0CFA00FCC2F88B
:1002B00014C00AE091F803C0BCF1480F05D14FF01B
:1002C000010C0CFA00FCC2F810C0401C0828D1D365
:1002D0001460B1F800C0BCF1FF0F34DD5468002099
:1002E0002EE000F1080C4FF0010808FA0CF3B1F809
:1002F00000C00CEA03069E4221D183004FF00F0C90
:100300000CFA03F7BC4305FA03FC4CEA040491F829
:1003100003C0BCF1280F05D100F1080C08FA0CF855
:10032000C2F8148091F803C0BCF1480F07D100F166
:10033000080C4FF0010808FA0CF8C2F81080401CB5
:100340000828CED35460BDE8F0810161704700BF3A
:10035000FEE721B1028842F48062028004E0028854
:100360004FF6FF331A400280704770B502460024F2
:10037000002500230020958A138B1B0445EA030601
:1003800026F07F4404EA01068E4201D1012000E0FC
:10039000002070BD21B1028842F00102028004E019
:1003A00002884FF6FE731A400280704770B505460A
:1003B0000E4614464FF42040684908600AE067483A
:1003C00001680068401E654A106019B9092000F0F4
:1003D00083FA70BD4FF40031614800F0B7F900288E
:1003E000EDD14FF480505D49086001215C4800F078
:1003F00095F90AE0594801680068401E574A1060A4
:1004000019B90A2000F068FAE3E756495448FFF7A3
:10041000ACFF0028EED0544801780022504800F08C
:100420004FFA4FF480504D4908600AE04B4801688C
:100430000068401E494A106019B90B2000F04CFAC0
:10044000C7E74849491C4648FFF78FFF0028EDD011
:1004500001214348FFF79EFF3146414800F039FA39
:100460004FF480503D4908600AE03C48016800684C
:10047000401E3A4A106019B90C2000F02DFAA8E786
:100480003A493748FFF771FF0028EED04FF480500B
:10049000324908600121324800F040F90AE02F4853
:1004A00001680068401E2D4A106019B90D2000F047
:1004B00013FA8EE72B492A48FFF757FF0028EED0A2
:1004C000294801780122264800F0FAF94FF48050BB
:1004D000224908600AE0214801680068401E1F4A5E
:1004E000106019B90E2000F0F7F972E71D49491C98
:1004F0001B48FFF73AFF0028EDD027E0012C07D179
:1005000000211748FFF725FF0121154800F012F9D7
:100510004FF42040114908600AE010480168006863
:10052000401E0E4A106019B9032000F0D5F950E7BB
:100530000C493F310A48FFF718FF0028EDD0084862
:1005400000F0BAF928706D1C601E84B2002CD5D161
:1005500001210348FFF7FDFE01203AE718000020C3
:100560000054004001000300140000208000070038
:1005700010B500F0ADF800F07DF9A0200149086049
:1005800010BD00001400002070B504460E4615464C
:100590004FF42040494908600BE048480168006872
:1005A000401E464A106021B9042000F095F9C0B2FF
:1005B00070BD4FF40031424800F0C8F80028ECD17B
:1005C00001213F4800F0AAF84FF480503B490860F1
:1005D0000BE03A4801680068401E384A106021B9B3
:1005E000052000F079F9C0B2E2E736493448FFF758
:1005F000BCFE0028EDD0344801780022304800F0DD
:100600005FF94FF480502D4908600BE02B480168DA
:100610000068401E294A106021B9062000F05CF9EC
:10062000C0B2C5E729492648FFF79FFE0028EDD054
:100630003146234800F04DF94FF480501F490860BF
:100640000BE01E4801680068401E1C4A106021B97A
:10065000072000F041F9C0B2AAE71C49891C1848DC
:10066000FFF783FE0028ECD01CE02178144800F04E
:1006700030F9641C4FF48050104908600BE00F48BB
:1006800001680068401E0D4A106021B9082000F082
:1006900023F9C0B28CE70D49891C0948FFF765FEB4
:1006A0000028ECD02800A5F10101CDB2DDD1012157
:1006B000034800F03FF801207AE70000180000200E
:1006C00000540040010003001400002082000700D5
:1006D00008B50121082000F0D9F90121480500F0F2
:1006E000C5F94020ADF800001C208DF80300032060
:1006F0008DF8020069460848FFF79CFD8020ADF8A0
:1007000000001C208DF8030003208DF802006946CC
:100710000148FFF78FFD08BD000C014021B10288A0
:1007200042F48072028004E002884FF6FF631A40B0
:100730000280704721B1028842F40072028004E016
:1007400002884FF6FF531A40028070470CB50246EC
:10075000002000230193009300920B0F019321F0DE
:100760007F41019B1BB1009B1433009303E0090CF4
:10077000009B18330093009B1B680B400BB10120BA
:1007800000E000200CBD00002DE9F04385B00446D8
:100790000D460026B1460427DFF8CC80A6884FF628
:1007A000C0700640684600F081F9DDF808802F48E7
:1007B000B8FBF0F01FFA80F946EA0906A680208807
:1007C0004FF6FE710840208000262949286888429B
:1007D0000CD828684000B8FBF0F087B2042F00DA8C
:1007E00004273E4309F10100208427E0E8884BF606
:1007F000FF71884206D1286800EB4000B8FBF0F09A
:1008000087B209E0286800EBC00101EB0010B8FBDB
:10081000F0F087B247F48047C7F30B0008B947F000
:10082000010747F4004006434FF4967009FB00F0BF
:100830004FF47A7190FBF1F0401C2084A68320884D
:1008400040F00100208026884FF6F5300640A88849
:100850006989084306432680A8892989084320819D
:1008600005B0BDE8F083000000127A0040420F009E
:10087000A08601001FB50E4800900020ADF80400CE
:100880004BF6FF70ADF806000A20ADF808004FF4F3
:100890008060ADF80A000001ADF80C00694605481B
:1008A000FFF772FF01210348FFF774FD1FBD000031
:1008B000801A0600005400400146088AC0B2704702
:1008C00012B141F0010102E04FF6FE7319400182BE
:1008D000704701827047000010B50446214602A00F
:1008E00000F0C2FA002010BD3C3C2D454550524F4F
:1008F0004D2D4552524F522D3E3E20493243B5C8F0
:10090000B4FDB3ACCAB1A3A16572726F72436F64D8
:10091000653D25640A00000010B5ADF5007D1EA000
:1009200000F0A2FA002413E040A90C5540A8015D94
:1009300021A000F099FAE11704EB11710911A4EB61
:1009400001110F2902D11EA000F08EFA601C84B2A2
:10095000FF2CE9DD1AA000F087FA0822002140A848
:10096000FFF712FE17A000F07FFA1EA000F07CFA3D
:10097000082200216846FFF719FD002406E01DF853
:1009800004100DA000F070FA601C84B2082CF6DB95
:1009900001200DF5007D10BD3C3C2D454550524FCA
:1009A0004D2D494E464F2D3E3E20D0B4C8EBB5C428
:1009B000CAFDBEDD0A0A00003078253032782000FA
:1009C0000A0000003C3C2D454550524F4D2D494EEC
:1009D000464F2D3E3E20D0B4BDE1CAF8C1CB0A0A35
:1009E000000000003C3C2D454550524F4D2D494ED6
:1009F000464F2D3E3E20B6C1C8EBB5C4CAFDBEDD94
:100A00000A0A000008B50121082000F03FF8202064
:100A1000ADF8000010208DF8030003208DF80200CF
:100A200069460F48FFF706FC0120ADF80000694653
:100A30000B48FFF7FFFB0220ADF8000069460848AD
:100A4000FFF7F8FB20210648FFF77FFC012104484F
:100A5000FFF77BFC02210248FFF777FC08BD00008E
:100A6000000C014000BFFEE77047704729B1064AFD
:100A7000D2690243044BDA6104E0034AD26982433B
:100A8000014BDA61704700000010024029B1064AAC
:100A900092690243044B9A6104E0034A92698243DB
:100AA000014B9A61704700000010024030B50021F0
:100AB0000022002400232D4D6D6805F00C0121B1AA
:100AC000042905D0082923D105E0294D056022E03D
:100AD000274D05601FE0254D6D6805F47012234D0C
:100AE0006D6805F48034022505EB92421CB9214D56
:100AF000554305600BE01D4D6D6805F400351DB1D3
:100B00001C4D5543056002E0194D5543056002E058
:100B1000174D056000BF00BF144D6D6805F0F00172
:100B20000909154D6B5C0568DD4045600F4D6D682A
:100B300005F4E061090A104D6B5C4568DD40856095
:100B40000A4D6D6805F46051C90A0B4D6B5C456830
:100B5000DD40C560054D6D6805F44041890B074DCA
:100B60006B5CC568B5FBF3F5056130BD0010024054
:100B700000127A0000093D00000000201000002053
:100B8000704710B500F002F810BD00000CB5002051
:100B9000019000903348006840F48030314908608B
:100BA00000BF3048006800F4003000900198401CFD
:100BB0000190009818B90198B0F5A06FF1D12948BB
:100BC000006800F4003010B10120009001E0002026
:100BD00000900098012843D12348006840F010009D
:100BE000214908600846006820F0030008600846B4
:100BF000006840F0020008601A48406819494860DF
:100C00000846406848600846406840F48060486094
:100C10000846406820F47C1048600846406840F46C
:100C2000E81048600846006840F08070086000BF27
:100C30000C48006800F000700028F9D009484068AE
:100C400020F00300074948600846406840F0020071
:100C5000486000BF0348406800F00C000828F9D144
:100C60000CBD000000100240002002407047000050
:100C700010B51348006840F00100114908600846AB
:100C80004068104908400E494860084600680E490F
:100C900008400B4908600846006820F4802008607E
:100CA0000846406820F4FE0048604FF41F0088604A
:100CB000FFF767FF4FF000600449086010BD0000B7
:100CC000001002400000FFF8FFFFF6FE08ED00E014
:100CD00021B1828942F40052828104E082894DF67A
:100CE000FF731A408281704700B585B0012104204E
:100CF000FFF7CCFE01218803FFF7C8FE4FF4007018
:100D0000ADF8100018208DF8130003208DF81200A4
:100D100004A91348FFF78EFA4FF48060ADF8100075
:100D200004208DF8130004A90D48FFF783FA4FF44F
:100D3000E13000900020ADF80C000C20ADF80A0066
:100D40000020ADF80800ADF806006946054800F03F
:100D500019F801210348FFF7BBFF05B000BD0000F3
:100D6000000801400038014002460020B1F5007F34
:100D700000D100BF13880B400BB1012000E0002020
:100D8000704700002DE9F04786B005460E46002466
:100D9000A24600BFA1460027B08900B100BF2F4680
:100DA0002C8A4CF6FF700440F08804432C82AC89F6
:100DB0004EF6F3100440B088318908437189084326
:100DC0000443AC81AC8A4FF6FF400440B089044331
:100DD000AC8201A8FFF76AFE1F48874202D1DDF806
:100DE00010A001E0DDF80CA0A88900F4004040B19B
:100DF0000AEBCA0000EB0A1031684900B0FBF1F8B9
:100E000007E00AEBCA0000EB0A1031688900B0FB6A
:100E1000F1F86420B8FBF0F004012009642101FB23
:100E20001089A88900F4004040B1322000EBC900CD
:100E3000B0FBF1F000F00700044308E0322000EBC3
:100E400009106421B0FBF1F000F00F0004432C8185
:100E500006B0BDE8F087000000380140C1F3080289
:100E60008280704700BFFEE70FB4054B10B503A9A1
:100E7000044A029800F018F810BC5DF814FB00005A
:100E80000D1300081C00002002E008C8121F08C152
:100E9000002AFAD170477047002001E001C1121FFB
:100EA000002AFBD1704700002DE9FF4F8DB00F469F
:100EB0000546002606E025280BD0DDE90F129047F5
:100EC0006D1C761C28780028F5D111B03046BDE89D
:100ED000F08F0024A246A1460122EC4900E0044321
:100EE00015F8013F203B02FA03F00842F7D12878B9
:100EF0002A2810D06FF02F022878A0F1300109299C
:100F000014D80AEB8A0102EB410144F0020400EB21
:100F1000010A6D1CF0E701CF5FEA000A03D544F433
:100F20000054CAF1000A44F002046D1C28782E28EF
:100F300017D115F8010F44F004042A280ED06FF0E1
:100F40002F022878A0F1300109290AD809EB89017C
:100F500002EB410100EB01096D1CF2E757F8049B1D
:100F60006D1C28786C280FD006DC4C2817D0682818
:100F70000DD06A2814D104E0742810D07A280FD13B
:100F80000DE044F400140AE044F4801401E044F459
:100F900040146978814202D104F580146D1C6D1CE7
:100FA0002A786E2A1FD00CDC632A31D004DC002A98
:100FB0008BD0582A11D1A3E0642A68D0692A0CD1B9
:100FC00065E0732A2ED004DC6F2A73D0702A04D116
:100FD0009BE0752A6FD0782A6ED01046DDE90F129B
:100FE0009047761C50E1C4F30250022806D0032833
:100FF00009D0042801CF09D0066045E101CFF117DF
:10100000C0E9006140E101CF06803DE106703BE1AF
:1010100017F8040B8DF8000000208DF80100EB4656
:10102000012003E057F804BB4FF0FF3061074FF099
:10103000000102D40DE008F10101884649450FDAAC
:101040008045F8DB1BF808100029F4D108E008F10E
:10105000010188468142FADB1BF808100029F6D10D
:10106000DDE90F23AAEB08008146214600F036F99E
:10107000304400EB080604E0DDE90F121BF8010B19
:101080009047B8F10108F7D221464846F7E00A2117
:10109000C4F302534FF0000B0891022B04D001CF90
:1010A000C117032B09D00AE0FF1D27F00707F7E857
:1010B000020108E032E01FE020E000B2C117042B7B
:1010C00001D140B2C117031E71F1000307DA4FF0DE
:1010D000000CD0EB0C006CEB01012D2302E023058A
:1010E00004D52B238DF82430012303E0E30701D03E
:1010F0002023F7E7984658E00A2110E010210EE07F
:1011000010204FF0000B08900CE010214FF0000B66
:1011100044F004044FF00809089103E008214FF05F
:10112000000B0891C4F30253022B04D001CF00211D
:10113000032B06D006E0FF1D27F00707F7E80201A2
:1011400003E080B2042B00D1C0B24FF000082307A7
:101150002BD5702A07D0DDF820C08CF0100C5CEA8B
:101160000B0C05D00EE040238DF82430012308E05D
:1011700050EA010306D030238DF824308DF8252065
:1011800002239846DDF820C08CF0080C5CEA0B0CBA
:101190000BD150EA010301D1630706D530238DF846
:1011A00024304FF00108A9F10109582A04D038A2CF
:1011B0000B9208AA0A920BE03AA2F9E75B46089A5A
:1011C000FEF7D2FF0B9B9B5C0A9A521E0A92137089
:1011D00050EA0102F2D10A98ADEB000000F1200BB9
:1011E000600702D524F4803401E04FF00109D945AD
:1011F00002DDA9EB0B0000E0002000EB0B014144F5
:101200000890AAEB010AE00306D4DDE90F2321468A
:10121000504600F063F806444FF0000908E009A9C1
:1012200011F80900DDE90F12904709F10109761C58
:10123000C145F4DBE0030CD5DDE90F232146504620
:1012400000F04CF8064404E0DDE90F12302090472E
:10125000761C0899481E08900029F5DC08E00A98D9
:101260000A990078491C0A91DDE90F129047761C13
:10127000BBF10001ABF1010BF1DC21465046DDE989
:101280000F2300F019F806446D1C1BE60928010025
:1012900030313233343536373839616263646566EC
:1012A00000000000303132333435363738394142AE
:1012B00043444546000000002DE9F0410446002566
:1012C0001E461746880404D405E039462020B0475E
:1012D0006D1C641EF9D52846BDE8F0812DE9F0416A
:1012E000044600251E469046C80301D5302700E07D
:1012F0002027880404D505E041463846B0476D1CD8
:10130000641EF9D52846BDE8F081000070B504469A
:101310000D46E1B20548FFF7A1FD00BF802103485B
:10132000FFF722FD0028F9D0204670BD00380140AB
:10133000FFF768FB202015490860012008600220A3
:10134000091D0860FFF7D0FC11A0FFF78DFD12A06A
:10135000FFF78AFDFFF70CF9FFF7DEFA012809D144
:1013600020200A4908600120091D08600220091F89
:10137000086008E020200549091D08600120091FB8
:1013800008600220086000BFFEE70000100C01406A
:101390004A7A480A00000000546869732069732083
:1013A0006120746573743A0A00000000CC130008D1
:1013B0000000002020000000880E0008EC13000848
:1013C0002000002000040000980E0008000000002B
:1013D00001020304010203040607080902040608C7
:0C13E00000000000000000000000000001
:0400000508000131BD
:00000001FF
