:03000000020339BF
:0C033900787FE4F6D8FD75811502038082
:10041E003F065B4F666D7D077F6F777C395E797126
:100409000809FFFFFFFFFFFFFFFF021100000108BE
:0404190000011300CB
:10000E00E4F514F515C2A2C2A3C2A4758901758CBC
:10001E00FC758A18D28CD2AFD2A9E508B401FBE4E4
:10002E00F5080515E51570020514AE14FF7C007D6C
:10003E000A12014B741E2DF58274043CF583E49371
:10004E00F509AE14AF157C007D0A12014B7C007DC4
:10005E000A12014B741E2DF58274043CF583E49351
:10006E00F50AAE14AF157C007D6412014B7C007D49
:10007E000A12014B741E2DF58274043CF583E49331
:10008E00F50BAE14AF157C037DE812014B7C007DA1
:10009E000A12014B741E2DF58274043CF583E49311
:1000AE00F50CAE14AF157C277D1012014B7C007D34
:1000BE000A12014B741E2DF58274043CF583E493F1
:1000CE00F50DAE14AF15E4FCFD7BA07A867901F830
:1000DE001203C5E47B0AFAF9F81203C5741E2BF558
:1000EE008274043AF583E493F50EAE14AF15E4FC76
:1000FE00FD7B407A42790FF81203C5E47B0AFAF9C8
:10010E00F81203C5741E2BF58274043AF583E4933A
:10011E00F50FAE14AF15E4FCFD7B807A967998F856
:10012E001203C5E47B0AFAF9F81203C5741E2BF507
:0D013E008274043AF583E493F51002002862
:03000B0002026E80
:10026E00C0E0C083C082C0D075D000C000758CFCC9
:10027E00758A180512E51270020511C394E8E5118E
:10028E009403400975110075120075080175800000
:10029E00E513B40800400302032E9002AFF828289D
:1002AE00730202C70202D40202E10202EE0202FB54
:1002BE00020308020315020322C2A2C2A3C2A405AE
:1002CE0013850980805AD2A2C2A3C2A40513850A3F
:1002DE0080804DC2A2D2A3C2A40513850B8080409C
:1002EE00D2A2D2A3C2A40513850C808033C2A2C2AF
:1002FE00A3D2A40513850D808026D2A2C2A3D2A4B8
:10030E000513850E808019C2A2D2A3D2A40513852F
:10031E000F80800CD2A2D2A3D2A4751300851080B8
:0B032E00D000D0D0D082D083D0E032CD
:1003450002000EE493A3F8E493A34003F68001F2C0
:1003550008DFF48029E493A3F85407240CC8C333B9
:10036500C4540F4420C8834004F456800146F6DF88
:10037500E4800B0102040810204080900409E47E0B
:10038500019360BCA3FF543F30E509541FFEE4937D
:10039500A360010ECF54C025E060A840B8E493A344
:1003A500FAE493A3F8E493A3C8C582C8CAC583CA6F
:1003B500F0A3C8C582C8CAC583CADFE9DEE780BE27
:01041D0000DE
:10014B00BC000BBE0029EF8DF084FFADF022E4CC98
:10015B00F875F008EF2FFFEE33FEEC33FCEE9DEC61
:10016B00984005FCEE9DFE0FD5F0E9E4CEFD22EDA7
:10017B00F8F5F0EE8420D21CFEADF075F008EF2FF1
:10018B00FFED33FD4007985006D5F0F222C398FDE2
:05019B000FD5F0EA227F
:1003C500C2D5E830E70FB2D5E4C39BFBE49AFAE463
:1003D50099F9E498F8EC30E717B2D51203FB12014E
:1003E500DCE4C39BFBE49AFAE499F9E498F880030A
:1003F5001201DC30D50DE4C39FFFE49EFEE49DFDB4
:04040500E49CFC2255
:1001A00075F008758200EF2FFFEE33FECD33CDCC16
:1001B00033CCC58233C5829BED9AEC99E582984099
:1001C0000CF582EE9BFEED9AFDEC99FC0FD5F0D676
:1001D000E4CEFBE4CDFAE4CCF9A88222B800C1B9A0
:1001E0000059BA002DEC8BF084CFCECDFCE5F0CBDE
:1001F000F97818EF2FFFEE33FEED33FDEC33FCEB17
:1002000033FB10D703994004EB99FB0FD8E5E4F9D1
:10021000FA227818EF2FFFEE33FEED33FDEC33FCBE
:10022000C933C910D7059BE99A4007EC9BFCE99AB2
:10023000F90FD8E0E4C9FAE4CCFB2275F010EF2FF7
:10024000FFEE33FEED33FDCC33CCC833C810D707F7
:100250009BEC9AE899400AED9BFDEC9AFCE899F832
:0E0260000FD5F0DAE4CDFBE4CCFAE4C8F922C5
:00000001FF
