:0300000002031BDD
:0C031B00787FE4F6D8FD758114020362BF
:1003EB003F065B4F666D7D077F6F777C395E79715A
:0A03FB000808FFFFFFFFFFFFFFFFF0
:10000300E4F510F511F512F513F514C2A2C2A3C25B
:10001300A4758901758CFC758A18D28C308DFDC24C
:100023008D758CFC758A180511E51170020510C3D6
:1000330094E8E5109403500302015BE4F510F51115
:100043000513E51370020512AE12FF7C007D0A1240
:1000530001F874EB2DF58274033CF583E493F50802
:10006300AE12AF137C007D0A1201F87C007D0A12E8
:1000730001F874EB2DF58274033CF583E493F509E1
:10008300AE12AF137C007D641201F87C007D0A126E
:1000930001F874EB2DF58274033CF583E493F50AC0
:1000A300AE12AF137C037DE81201F87C007D0A12C7
:1000B30001F874EB2DF58274033CF583E493F50B9F
:1000C300AE12AF137C277D101201F87C007D0A125B
:1000D30001F874EB2DF58274033CF583E493F50C7E
:1000E300AE12AF13E4FCFD7BA07A867901F812030C
:1000F300A7E47B0AFAF9F81203A774EB2BF58274D1
:10010300033AF583E493F50DAE12AF13E4FCFD7BE4
:10011300407A42790FF81203A7E47B0AFAF9F8123E
:1001230003A774EB2BF58274033AF583E493F50E7E
:10013300AE12AF13E4FCFD7B807A967998F8120334
:10014300A7E47B0AFAF9F81203A774EB2BF5827480
:10015300033AF583E493F50FE4F580E514B408005E
:10016300400302001F90016FF828287302018702E1
:1001730001950201A30201B10201BF0201CD0201F7
:10018300DB0201E9C2A2C2A3C2A40514850880024E
:10019300001FD2A2C2A3C2A4051485098002001FB6
:1001A300C2A2D2A3C2A40514850A8002001FD2A250
:1001B300D2A3C2A40514850B8002001FC2A2C2A34E
:1001C300D2A40514850C8002001FD2A2C2A3D2A41C
:1001D3000514850D8002001FC2A2D2A3D2A4051468
:1001E300850E8002001FD2A2D2A3D2A4E4F5148507
:0501F3000F8002001F57
:10032700020003E493A3F8E493A34003F68001F2E9
:1003370008DFF48029E493A3F85407240CC8C333D7
:10034700C4540F4420C8834004F456800146F6DFA6
:10035700E4800B01020408102040809003FBE47E38
:10036700019360BCA3FF543F30E509541FFEE4939B
:10037700A360010ECF54C025E060A840B8E493A362
:10038700FAE493A3F8E493A3C8C582C8CAC583CA8D
:10039700F0A3C8C582C8CAC583CADFE9DEE780BE45
:0104050000F6
:1001F800BC000BBE0029EF8DF084FFADF022E4CCEB
:10020800F875F008EF2FFFEE33FEEC33FCEE9DECB3
:10021800984005FCEE9DFE0FD5F0E9E4CEFD22EDF9
:10022800F8F5F0EE8420D21CFEADF075F008EF2F43
:10023800FFED33FD4007985006D5F0F222C398FD34
:050248000FD5F0EA22D1
:1003A700C2D5E830E70FB2D5E4C39BFBE49AFAE481
:1003B70099F9E498F8EC30E717B2D51203DD120289
:1003C70089E4C39BFBE49AFAE499F9E498F880037B
:1003D70012028930D50DE4C39FFFE49EFEE49DFD24
:0403E700E49CFC2274
:10024D0075F008758200EF2FFFEE33FECD33CDCC68
:10025D0033CCC58233C5829BED9AEC99E5829840EB
:10026D000CF582EE9BFEED9AFDEC99FC0FD5F0D6C8
:10027D00E4CEFBE4CDFAE4CCF9A88222B800C1B9F2
:10028D000059BA002DEC8BF084CFCECDFCE5F0CB30
:10029D00F97818EF2FFFEE33FEED33FDEC33FCEB69
:1002AD0033FB10D703994004EB99FB0FD8E5E4F924
:1002BD00FA227818EF2FFFEE33FEED33FDEC33FC11
:1002CD00C933C910D7059BE99A4007EC9BFCE99A05
:1002DD00F90FD8E0E4C9FAE4CCFB2275F010EF2F4A
:1002ED00FFEE33FEED33FDCC33CCC833C810D7074A
:1002FD009BEC9AE899400AED9BFDEC9AFCE899F885
:0E030D000FD5F0DAE4CDFBE4CCFAE4C8F92217
:00000001FF
