:0300000002009368
:0C009300787FE4F6D8FD758107020003B9
:1000030075A0FEE4FEFF0FBF00010EBE75F8BF3002
:10001300F575A0FDE4FEFF0FBF00010EBE75F8BF2E
:1000230030F575A0FBE4FEFF0FBF00010EBE75F8AF
:10003300BF30F575A0F7E4FEFF0FBF00010EBE75DC
:10004300F8BF30F575A0EFE4FEFF0FBF00010EBE51
:1000530075F8BF30F575A0DFE4FEFF0FBF00010E9A
:10006300BE75F8BF30F575A0BFE4FEFF0FBF0001FA
:100073000EBE75F8BF30F575A07FE4FEFFC3EF94A5
:1000830030EE947540030200030FBF00010E80EDB4
:00000001FF
