:020000040800F2
:100000000808002045010008BD030008530300084C
:10001000B90300082F0200083D0C00080000000092
:100020000000000000000000000000005909000866
:100030003302000800000000BF030008450A000862
:100040005F0100085F0100085F0100085F01000810
:100050005F0100085F0100085F0100085F01000800
:100060005F0100085F0100085F0100085F010008F0
:100070005F0100085F0100085F0100085F010008E0
:100080005F0100085F0100085F0100085F010008D0
:100090005F0100085F0100085F0100085F010008C0
:1000A0005F0100085F0100085F0100085F010008B0
:1000B0005F0100085F0100085F0100085F010008A0
:1000C0005F0100085F0100085F0100085F01000890
:1000D0005F0100085F0100085F0100085F01000880
:1000E0005F0100085F0100085F0100085F01000870
:1000F0005F0100085F0100085F0100085F01000860
:100100005F0100085F0100085F0100085F0100084F
:100110005F0100085F0100085F0100085F0100083F
:100120005F0100085F0100085F0100085F0100082F
:10013000DFF80CD000F04AF800480047650F0008CF
:10014000080800200648804706480047FEE7FEE70B
:10015000FEE7FEE7FEE7FEE7FEE7FEE7FEE7FEE777
:10016000490A0008310100082DE9F05F054600202A
:1001700092469B4688460646814640241BE0284618
:1001800041464746224600F042F853465A46C01AB6
:10019000914110D311461846224600F029F82D1A35
:1001A00067EB01084F4622460120002100F020F8AD
:1001B00017EB00094E41201EA4F10104DFDC484684
:1001C00031462A464346BDE8F09F0000064C074DE5
:1001D00006E0E06840F0010394E807009847103417
:1001E000AC42F6D3FFF7A8FF4010000860100008EB
:1001F000202A04DB203A00FA02F1002070479140E7
:10020000C2F1200320FA03F3194390407047202ADB
:1002100004DB203A21FA02F00021704721FA02F3B0
:10022000D040C2F12002914008431946704700BFF8
:10023000FEE770472DE9F041024600250026002028
:1002400000230024002791F803C00CF00F0591F85B
:1002500003C00CF0100CBCF1000F03D091F802C0E9
:100260004CEA050591F800C0BCF1000F31D01468CC
:1002700000202BE04FF0010C0CFA00F3B1F800C0A5
:100280000CEA03069E4220D183004FF00F0C0CFABB
:1002900003F7BC4305FA03FC4CEA040491F803C0DD
:1002A000BCF1280F06D14FF0010C0CFA00FCC2F88B
:1002B00014C00AE091F803C0BCF1480F05D14FF01B
:1002C000010C0CFA00FCC2F810C0401C0828D1D365
:1002D0001460B1F800C0BCF1FF0F34DD5468002099
:1002E0002EE000F1080C4FF0010808FA0CF3B1F809
:1002F00000C00CEA03069E4221D183004FF00F0C90
:100300000CFA03F7BC4305FA03FC4CEA040491F829
:1003100003C0BCF1280F05D100F1080C08FA0CF855
:10032000C2F8148091F803C0BCF1480F07D100F166
:10033000080C4FF0010808FA0CF8C2F81080401CB5
:100340000828CED35460BDE8F08141617047016157
:10035000704700BFFEE7000008B50121082000F04B
:100360002FF82020ADF8000010208DF803000320A6
:100370008DF8020069460F48FFF75CFF0120ADF8D9
:10038000000069460B48FFF755FF0220ADF800005A
:1003900069460848FFF74EFF20210648FFF7D7FFC0
:1003A00001210448FFF7D3FF02210248FFF7CFFFE6
:1003B00008BD0000000C014000BFFEE77047704719
:1003C00029B1064A92690243044B9A6104E0034A48
:1003D00092698243014B9A6170470000001002400D
:1003E00030B500210022002400232D4D6D6805F05A
:1003F0000C0121B1042905D0082923D105E0294D9C
:10040000056022E0274D05601FE0254D6D6805F46D
:100410007012234D6D6805F48034022505EB92427D
:100420001CB9214D554305600BE01D4D6D6805F469
:1004300000351DB11C4D5543056002E0194D554373
:10044000056002E0174D056000BF00BF144D6D68E8
:1004500005F0F0010909154D6B5C0568DD4045604C
:100460000F4D6D6805F4E061090A104D6B5C45683D
:10047000DD4085600A4D6D6805F46051C90A0B4D79
:100480006B5C4568DD40C560054D6D6805F4404115
:10049000890B074D6B5CC568B5FBF3F5056130BD95
:1004A0000010024000127A0000093D000000002008
:1004B0001000002021B1028842F04002028004E0D6
:1004C00002884FF6BF731A400280704710B51021A2
:1004D0000548FFF73AFF062000F0A4F91021024872
:1004E000FFF735FF10BD00000008014070B505465C
:1004F0000C46164610211148FFF727FF032000F095
:1005000091F900210904C8B200F08CF90021090218
:10051000C8B200F087F9E0B200F084F903E000F01F
:1005200059F928706D1C3000A6F101018EB2F6D188
:1005300010210248FFF70BFF70BD000000080140CA
:100540002DE9F05F07460E4614464FF00008C146FD
:10055000C2460025AB4606F0FF0ACAF10000C5B24C
:100560002046E11704EB1161C1F30728E11704EB02
:1005700011610912A4EB012101F0FF09BAF1000F8A
:1005800020D1B8F1000F05D122463146384600F09F
:10059000D1F864E009E04FF480723146384600F04B
:1005A000C9F807F5807706F580765FEA0800A8F1BC
:1005B000010101F0FF08EED14A463146384600F00D
:1005C000B9F84CE0B8F1000F18D1A94510DDA9EB3E
:1005D000050000F0FF0B2A463146384600F0AAF825
:1005E0002F442E445A463146384600F0A3F836E0F0
:1005F00022463146384600F09DF830E0601B84B258
:100600002046E11704EB1161C1F30728E11704EB61
:1006100011610912A4EB012101F0FF092A463146BC
:10062000384600F087F82F442E4409E04FF48072DA
:100630003146384600F07EF807F5807706F580767B
:100640005FEA0800A8F1010101F0FF08EED1B9F15D
:10065000000F04D04A463146384600F06BF8BDE83A
:10066000F09F000000B587B001210803FFF7A8FE46
:1006700001210420FFF7A4FE1020ADF804000320A0
:100680008DF8060010208DF8070001A92748FFF714
:10069000D1FD10212548FFF75AFE2020ADF80400B7
:1006A00003208DF8060018208DF8070001A91F48C7
:1006B000FFF7C0FD4020ADF8040003208DF80600D0
:1006C00004208DF8070001A91848FFF7B3FD80202A
:1006D000ADF8040003208DF8060018208DF80700FF
:1006E00001A91248FFF7A6FD0020ADF81400022072
:1006F000ADF810000120ADF80E000020ADF80C00A0
:10070000ADF80800ADF816004FF48270ADF80A009D
:100710004FF40070ADF8120002A9054800F0E2F8AD
:1007200001210348FFF7C6FE07B000BD00080140E5
:100730000030014070B505460C461646FFF7C6FE70
:1007400010211148FFF701FE022000F06BF8C4F3FE
:10075000074000F067F8C4F3072000F063F8E0B248
:1007600000F060F803E015F8010B00F05BF83000D2
:10077000A6F101018EB2F6D110210348FFF7E7FD83
:1007800000F08AF870BD0000000801402DE9F0413A
:10079000002400250026002710210D48FFF7D5FD75
:1007A0009F2000F03FF800F015F8054600F012F821
:1007B000064600F00FF8074610210548FFF7C7FD71
:1007C000280440EA062040EA07042046BDE8F081FC
:1007D0000008014010B5FF2000F024F810BD000013
:1007E00010B50446FFF772FEFFF770FE10210C48AB
:1007F000FFF7ABFD202000F015F8C4F3074000F030
:1008000011F8C4F3072000F00DF8E0B200F00AF888
:1008100010210348FFF79BFD00F03EF810BD0000DB
:100820000008014010B504464FF480501849086094
:1008300009E0174801680068401E154A106011B9A8
:10084000002000F06DF80221124800F03DF8002869
:10085000EFD021460F4800F043F84FF480500C4988
:10086000086009E00A4801680068401E084A1060F4
:1008700011B9012000F054F80121064800F024F8D5
:100880000028EFD0034800F028F8C0B210BD0000E7
:10089000180000200030014010B500241021094844
:1008A000FFF753FD0520FFF7BDFF00BFFFF792FFE5
:1008B000044604F001000028F8D110210148FFF798
:1008C00046FD10BD000801400246002013890B4080
:1008D0000BB1012000E00020704701468889704775
:1008E0008181704710B50022028802F441520B88C2
:1008F0004C8823438C882343CC8823430C8923438F
:100900004C8923438C892343CC8923431A43028097
:10091000838B4FF2FF74234083830B8A038210BDC5
:1009200010B50446214602A000F08AF9002010BD4F
:10093000666C617368204552524F522D2D535049B9
:100940002064656C61792C6572726F72436F6465A7
:100950003D25640A00000000704710B500F002F861
:1009600010BD00000CB500200190009033480068D5
:1009700040F480303149086000BF3048006800F41E
:10098000003000900198401C0190009818B901981F
:10099000B0F5A06FF1D12948006800F4003010B123
:1009A0000120009001E0002000900098012843D130
:1009B0002348006840F0100021490860084600689C
:1009C00020F0030008600846006840F0020008605C
:1009D0001A48406819494860084640684860084617
:1009E000406840F4806048600846406820F47C100D
:1009F00048600846406840F4E810486008460068CF
:100A000040F08070086000BF0C48006800F0007083
:100A10000028F9D00948406820F0030007494860E1
:100A20000846406840F00200486000BF0348406844
:100A300000F00C000828F9D10CBD000000100240A5
:100A4000002002407047000010B51348006840F0D5
:100A500001001149086008464068104908400E49E5
:100A60004860084600680E4908400B49086008467F
:100A7000006820F4802008600846406820F4FE00EA
:100A800048604FF41F008860FFF767FF4FF0006079
:100A90000449086010BD0000001002400000FFF88B
:100AA000FFFFF6FE08ED00E021B1828942F400521A
:100AB000828104E082894DF6FF731A40828170477B
:100AC00000B585B001210420FFF77AFC01218803DD
:100AD000FFF776FC4FF40070ADF8100018208DF889
:100AE000130003208DF8120004A91348FFF7A2FB9E
:100AF0004FF48060ADF8100004208DF8130004A9B5
:100B00000D48FFF797FB4FF4E13000900020ADF85F
:100B10000400ADF80600ADF80800ADF80C000C209C
:100B2000ADF80A006946054800F018F801210348AD
:100B3000FFF7BAFF05B000BD0008014000380140D2
:100B400002460020B1F5007F00D100BF13880B40A2
:100B50000BB1012000E00020704700002DE9F047B4
:100B600086B005460E460024A24600BFA1460027D7
:100B7000B08900B100BF2F462C8A4CF6FF700440AC
:100B8000F08804432C82AC894EF6F3100440B08800
:100B900031890843718908430443AC81AC8A4FF61C
:100BA000FF400440B0890443AC8201A8FFF718FC61
:100BB0001F48874202D1DDF810A001E0DDF80CA04B
:100BC000A88900F4004040B10AEBCA0000EB0A100B
:100BD00031684900B0FBF1F807E00AEBCA0000EB0E
:100BE0000A1031688900B0FBF1F86420B8FBF0F01E
:100BF00004012009642101FB1089A88900F4004048
:100C000040B1322000EBC900B0FBF1F000F007006A
:100C1000044308E0322000EB09106421B0FBF1F03E
:100C200000F00F0004432C8106B0BDE8F0870000FF
:100C300000380140C1F308028280704700BFFEE720
:100C40000FB4054B10B503A9044A029800F018F838
:100C500010BC5DF814FB0000410F00081C000020D0
:100C600002E008C8121F08C1002AFAD17047704775
:100C7000002001E001C1121F002AFBD170470000D3
:100C80002DE9FF4F8DB09B460F460446002606E037
:100C900025280BD05A460F999047641C761C207863
:100CA0000028F5D111B03046BDE8F08F0025A846E8
:100CB0000122984900E0054314F8013F203B02FA65
:100CC00003F00842F7D120782E2817D114F8010F2D
:100CD00045F004052A280ED06FF02F022078A0F1ED
:100CE000300109290AD808EB880102EB410100EB29
:100CF0000108641CF2E757F8048B641C20786C2808
:100D00000DD004DC4C2812D06A2811D104E07428DC
:100D10000DD07A280CD10AE045F4001507E061787F
:100D200045F48015814202D1641C05F58015641CD0
:100D30002278692A45D008DC002AB3D0582A69D025
:100D4000632A10D0642A08D13BE0702A67D0732A46
:100D500013D0752A5CD0782A5CD010465A460F9979
:100D60009047761CD3E017F8040B8DF800000020A4
:100D70008DF80100E946012003E057F8049B4FF08D
:100D8000FF3069074FF0000501D40AE06D1C4545AE
:100D90000DDA8542FADB19F805100029F6D106E0D4
:100DA0006D1C8542FCDB19F805100029F8D12E4492
:100DB00004E019F8010B5A460F9990476D1EF8D2BE
:100DC000A5E00A200021CDE90801C5F30250022860
:100DD0000DD001CFC117031E71F100030DDA4FF0E2
:100DE000000CD0EB0C006CEB01012D2308E0FF1D83
:100DF00027F00707F7E80201EDE72B0504D52B23C1
:100E00008DF8283001233BE0EB0739D02023F7E7AA
:100E10000A2000E010200021CDE9080107E01020A1
:100E2000002145F00405CDE908014FF00808C5F39D
:100E3000025002280FD001CF00214FF0000A2B07EB
:100E40001FD5702A0DD0DDE908C38CF0100C5CEAC8
:100E5000030C0CD015E0FF1D27F00707F7E802018F
:100E6000EBE740228DF828204FF0010A0BE050EA12
:100E7000010306D030238DF828308DF82920022375
:100E80009A46582A04D024A20DF120090B9209E0B9
:100E900026A2F9E7DDE90823FFF766F90B9B9B5CC7
:100EA00009F8013D50EA0102F4D1ADEB0900203010
:100EB0000890680701D44FF001080899884502DDC1
:100EC000A8EB010000E000208046002506E00AA80B
:100ED0005A46405D0F9990476D1C761C5545F6DBD0
:100EE00004E030205A460F999047761CB8F1000173
:100EF000A8F10108F5DC05E019F8010B5A460F9935
:100F00009047761C0899481E08900029F4DC641C60
:100F1000C5E6000009280100303132333435363758
:100F20003839616263646566000000003031323335
:100F300034353637383941424344454600000000D5
:100F400070B504460D46E1B20548FFF773FE00BFD9
:100F500080210348FFF7F4FD0028F9D0204670BD3A
:100F60000038014010B5FFF7F7F920202449086048
:100F70000120091F086002200860FFF7A1FD21A0E1
:100F8000FFF75EFEFFF76EFBFFF700FC22490860EB
:100F90000846016821A0FFF753FE002404E0052065
:100FA00023490855601C84B2B4F5FA7FF7DB0020B2
:100FB000FFF716FC4FF4FA7200211D48FFF7C0FA44
:100FC0004FF4FA7200211B48FFF790FA002411E059
:100FD0001848015D18A0FFF733FEE11704EB11710B
:100FE0000911A4EB01110F2902D10AA0FFF728FE75
:100FF000601C84B2B4F5FA7FEADB002010BD00006B
:10100000140C0140546869732069732053504920BF
:10101000544553540A00000014000020466C6173CC
:1010200068494420697320307825780A0000000060
:1010300020000020140200203078257820000000D5
:10104000601000080000002020000000600C000874
:101050008010000820000020E8070000700C000845
:10106000000000000102030401020304060708094E
:10107000020406080000000000000000000000005C
:0400000508000131BD
:00000001FF
