:0300000002032ECA
:0C032E00787FE4F6D8FD75811702037596
:100003003F065B4F666D7D077F6F777C395E797145
:1003BA000809000000000000000002150000010802
:0A03CA0000011700041105F5E10021
:10001E00C2A2C2A3C2A4758910D28E758DFC758B37
:10002E0018D2AFD2ABE508B401FBE4F508E5142411
:10003E00FFF514E51334FFF513E51234FFF512E561
:10004E001134FFF511E47B0AFAF9F8AF14AE13ADD3
:10005E0012AC111201D174032BF58274003AF583A0
:10006E00E493F509E47B0AFAF9F8AF14AE13AD1276
:10007E00AC111201D1E47B0AFAF9F81201D1740322
:10008E002BF58274003AF583E493F50AE47B64FA67
:10009E00F9F8AF14AE13AD12AC111201D1E47B0A14
:1000AE00FAF9F81201D174032BF58274003AF58334
:1000BE00E493F50BE47BE87A03F9F8AF14AE13ADD5
:1000CE0012AC111201D1E47B0AFAF9F81201D174C3
:1000DE00032BF58274003AF583E493F50CE47B1060
:1000EE007A27F9F8AF14AE13AD12AC111201D1E4A8
:1000FE007B0AFAF9F81201D174032BF58274003AD7
:10010E00F583E493F50D7BA07A8679017800AF1420
:10011E00AE13AD12AC111201D1E47B0AFAF9F8124A
:10012E0001D174032BF58274003AF583E493F50E36
:10013E007B407A42790F7800AF14AE13AD12AC113A
:10014E001201D1E47B0AFAF9F81201D174032BF5EE
:10015E008274003AF583E493F50F7B807A96799852
:10016E007800AF14AE13AD12AC111201D1E47B0ABC
:10017E00FAF9F81201D174032BF58274003AF58363
:07018E00E493F510020033B9
:03001B000202637B
:10026300C0E0C083C082C0D075D000C000758DFCD3
:10027300758B180516E51670020515C394E8E51588
:100283009403400975150075160075080175800003
:10029300E517B4080040030203239002A4F82828BA
:1002A300730202BC0202C90202D60202E30202F096
:1002B3000202FD02030A020317C2A2C2A3C2A405DB
:1002C30017850980805AD2A2C2A3C2A40517850A42
:1002D30080804DC2A2D2A3C2A40517850B808040A3
:1002E300D2A2D2A3C2A40517850C808033C2A2C2B6
:1002F300A3D2A40517850D808026D2A2C2A3D2A4BF
:100303000517850E808019C2A2D2A3D2A405178532
:100313000F80800CD2A2D2A3D2A4751700851080BF
:0B032300D000D0D0D082D083D0E032D8
:10033A0002001EE493A3F8E493A34003F68001F2BB
:10034A0008DFF48029E493A3F85407240CC8C333C4
:10035A00C4540F4420C8834004F456800146F6DF93
:10036A00E4800B01020408102040809003BAE47E66
:10037A00019360BCA3FF543F30E509541FFEE49388
:10038A00A360010ECF54C025E060A840B8E493A34F
:10039A00FAE493A3F8E493A3C8C582C8CAC583CA7A
:1003AA00F0A3C8C582C8CAC583CADFE9DEE780BE32
:0103D4000028
:1001950075F008758200EF2FFFEE33FECD33CDCC21
:1001A50033CCC58233C5829BED9AEC99E5829840A4
:1001B5000CF582EE9BFEED9AFDEC99FC0FD5F0D681
:1001C500E4CEFBE4CDFAE4CCF9A88222B800C1B9AB
:1001D5000059BA002DEC8BF084CFCECDFCE5F0CBE9
:1001E500F97818EF2FFFEE33FEED33FDEC33FCEB22
:1001F50033FB10D703994004EB99FB0FD8E5E4F9DD
:10020500FA227818EF2FFFEE33FEED33FDEC33FCC9
:10021500C933C910D7059BE99A4007EC9BFCE99ABD
:10022500F90FD8E0E4C9FAE4CCFB2275F010EF2F02
:10023500FFEE33FEED33FDCC33CCC833C810D70702
:100245009BEC9AE899400AED9BFDEC9AFCE899F83D
:0E0255000FD5F0DAE4CDFBE4CCFAE4C8F922D0
:00000001FF
